:020000040800F2
:1000000000000C20A918000891140008971400089B
:100010009D140008A3140008A9140008AF140008D8
:10002000000000000000000000000000B5140008FF
:10003000C314000800000000D1140008DF140008F9
:10004000F9180008F9180008F9180008F91800084C
:10005000F9180008F9180008F9180008F91800083C
:10006000F9180008F9180008F9180008F91800082C
:10007000F9180008F9180008F9180008F91800081C
:10008000F9180008F9180008F9180008F91800080C
:10009000F9180008F9180008F9180008F9180008FC
:1000A000F91800080115000811150008F9180008D2
:1000B000F9180008F9180008F9180008F9180008DC
:1000C000F9180008F9180008F9180008F9180008CC
:1000D000F9180008F9180008F9180008F9180008BC
:1000E000F9180008F9180008F9180008F9180008AC
:1000F000F9180008F9180008F9180008F91800089C
:10010000F9180008F9180008F9180008F91800088B
:10011000F9180008F9180008F9180008F91800087B
:10012000F9180008F9180008F9180008F91800086B
:10013000ED140008F9180008F9180008F91800086B
:10014000F9180008F9180008F91800082115000826
:10015000F9180008F9180008F9180008F91800083B
:10016000F9180008F9180008F9180008F91800082B
:10017000F9180008F9180008F9180008F91800081B
:10018000F9180008F9180008F9180008F91800080B
:10019000F9180008F9180008F9180008F9180008FB
:1001A000F9180008F9180008F9180008F9180008EB
:1001B000F9180008F9180008F9180008F9180008DB
:1001C000F9180008F9180008F9180008F9180008CB
:1001D000F9180008F9180008F9180008F9180008BB
:1001E000F9180008F9180008F9180008F9180008AB
:1001F000F9180008F9180008F9180008F91800089B
:10020000F9180008F9180008F9180008F91800088A
:10021000F9180008F9180008F9180008F91800087A
:10022000F9180008F9180008F9180008F91800086A
:08023000F9180008F918000894
:1002380010B5054C237833B9044B13B10448AFF318
:1002480000800123237010BDC802002000000000B8
:10025800309C010808B5034B1BB103490348AFF3B1
:10026800008008BD00000000CC020020309C01087E
:10027800034613F8012B002AFBD1181A01387047DE
:1002880010F8012B11F8013B012A28BF9A42F7D038
:10029800D01A704781F0004102E000BF83F00043AC
:1002A80030B54FEA41044FEA430594EA050F08BF09
:1002B80090EA020F1FBF54EA000C55EA020C7FEACD
:1002C800645C7FEA655C00F0E2804FEA5454D4EB4A
:1002D8005555B8BF6D420CDD2C4480EA020281EA14
:1002E800030382EA000083EA010180EA020281EA4C
:1002F8000303362D88BF30BD11F0004F4FEA01319E
:100308004FF4801C4CEA113102D0404261EB4101AC
:1003180013F0004F4FEA03334CEA133302D0524232
:1003280063EB430394EA050F00F0A780A4F10104EE
:10033800D5F1200E0DDB02FA0EFC22FA05F2801828
:1003480041F1000103FA0EF2801843FA05F359410E
:100358000EE0A5F120050EF1200E012A03FA0EFC8D
:1003680028BF4CF0020C43FA05F3C01851EBE371B7
:1003780001F0004507D54FF0000EDCF1000C7EEBD4
:1003880000006EEB0101B1F5801F1BD3B1F5001F12
:100398000CD349085FEA30004FEA3C0C04F1010431
:1003A8004FEA445212F5800F80F09A80BCF1004F5A
:1003B80008BF5FEA500C50F1000041EB045141EADC
:1003C800050130BD5FEA4C0C404141EB0101013CA5
:1003D80028BFB1F5801FE9D291F0000F04BF014694
:1003E8000020B1FA81F308BF2033A3F10B03B3F166
:1003F80020020CDA0C3208DD02F1140CC2F10C02F6
:1004080001FA0CF021FA02F10CE002F11402D8BF53
:10041800C2F1200C01FA02F120FA0CFCDCBF41EA1F
:100428000C019040E41AA2BF01EB0451294330BDEE
:100438006FEA04041F3C1CDA0C340EDC04F11404CB
:10044800C4F1200220FA04F001FA02F340EA0300A2
:1004580021FA04F345EA030130BDC4F10C04C4F1E8
:10046800200220FA02F001FA04F340EA03002946C8
:1004780030BD21FA04F0294630BD94F0000F83F412
:10048800801306BF81F480110134013D4EE77FEAF5
:10049800645C18BF7FEA655C29D094EA050F08BF41
:1004A80090EA020F05D054EA000C04BF1946104622
:1004B80030BD91EA030F1EBF0021002030BD5FEA66
:1004C800545C05D14000494128BF41F0004130BD8E
:1004D80014F580043CBF01F5801130BD01F00045E2
:1004E80045F0FE4141F470014FF0000030BD7FEA55
:1004F800645C1ABF194610467FEA655C1CBF0B4650
:10050800024650EA013406BF52EA033591EA030F66
:1005180041F4002130BD00BF90F0000F04BF00215E
:10052800704730B54FF4806404F132044FF0000591
:100538004FF0000150E700BF90F0000F04BF00210A
:10054800704730B54FF4806404F1320410F0004570
:1005580048BF40424FF000013EE700BF42004FEA6B
:10056800E2014FEA31014FEA02701FBF12F07F43E8
:1005780093F07F4F81F06051704732F07F4208BF9F
:10058800704793F07F4F04BF41F40021704730B5A6
:100598004FF4607401F0004521F000411CE700BFF2
:1005A80050EA010208BF704730B54FF000050AE075
:1005B80050EA010208BF704730B511F0004502D576
:1005C800404261EB41014FF4806404F132045FEA78
:1005D800915C3FF4D8AE4FF003025FEADC0C18BF21
:1005E80003325FEADC0C18BF033202EBDC02C2F113
:1005F800200300FA03FC20FA02F001FA03FE40EAA5
:100608000E0021FA02F11444BDE600BF70B54FF0A8
:10061800FF0C4CF4E06C1CEA11541DBF1CEA135586
:1006280094EA0C0F95EA0C0F00F0DEF82C4481EAEE
:10063800030621EA4C5123EA4C5350EA013518BF0E
:1006480052EA033541F4801143F4801338D0A0FBFB
:1006580002CE4FF00005E1FB02E506F00042E0FBA8
:1006680003E54FF00006E1FB03569CF0000F18BFAE
:100678004EF0010EA4F1FF04B6F5007F64F5407456
:1006880004D25FEA4E0E6D4146EB060642EAC621E9
:1006980041EA55514FEAC52040EA5E504FEACE2E56
:1006A800B4F1FD0C88BFBCF5E06F1ED8BEF1004F59
:1006B80008BF5FEA500E50F1000041EB045170BDD5
:1006C80006F0004646EA010140EA020081EA030119
:1006D800B4EB5C04C2BFD4EB0C0541EA045170BD15
:1006E80041F480114FF0000E013C00F3AB8014F18F
:1006F800360FDEBF002001F0004170BDC4F10004D8
:10070800203C35DA0C341BDC04F11404C4F1200558
:1007180000FA05F320FA04F001FA05F240EA0200B3
:1007280001F0004221F0004110EBD37021FA04F6E9
:1007380042EB06015EEA430E08BF20EAD37070BDA3
:10074800C4F10C04C4F1200500FA04F320FA05F002
:1007580001FA04F240EA020001F0004110EBD37004
:1007680041F100015EEA430E08BF20EAD37070BD74
:10077800C4F1200500FA05F24EEA020E20FA04F34D
:1007880001FA05F243EA020321FA04F001F00041FC
:1007980021FA04F220EA020000EBD3705EEA430E6D
:1007A80008BF20EAD37070BD94F0000F0FD101F09C
:1007B8000046400041EB010111F4801F08BF013CD5
:1007C800F7D041EA060195F0000F18BF704703F013
:1007D8000046520043EB030313F4801F08BF013D9A
:1007E800F7D043EA0603704794EA0C0F0CEA135556
:1007F80018BF95EA0C0F0CD050EA410618BF52EA10
:100808004306D1D181EA030101F000414FF0000015
:1008180070BD50EA410606BF1046194652EA430623
:1008280019D094EA0C0F02D150EA013613D195EA97
:100838000C0F05D152EA03361CBF104619460AD1DF
:1008480081EA030101F0004141F0FE4141F47001E9
:100858004FF0000070BD41F0FE4141F4780170BDD9
:1008680070B54FF0FF0C4CF4E06C1CEA11541DBF3E
:100878001CEA135594EA0C0F95EA0C0F00F0A7F840
:10088800A4EB050481EA030E52EA03354FEA01316D
:1008980000F088804FEA03334FF0805545EA131380
:1008A80043EA12634FEA022245EA111545EA106548
:1008B8004FEA00260EF000419D4208BF964244F1DF
:1008C800FD0404F5407402D25B084FEA3202B61AFE
:1008D80065EB03055B084FEA32024FF480104FF4D2
:1008E800002CB6EB020E75EB030E22BFB61A754646
:1008F80040EA0C005B084FEA3202B6EB020E75EBD9
:10090800030E22BFB61A754640EA5C005B084FEA40
:100918003202B6EB020E75EB030E22BFB61A75460D
:1009280040EA9C005B084FEA3202B6EB020E75EB18
:10093800030E22BFB61A754640EADC0055EA060ED9
:1009480018D04FEA051545EA16754FEA06164FEA1C
:10095800C30343EA52734FEAC2025FEA1C1CC0D1C8
:1009680011F4801F0BD141EA00014FF000004FF055
:10097800004CB6E711F4801F04BF01430020B4F116
:10098800FD0C88BFBCF5E06F3FF6AFAEB5EB030CCE
:1009980004BFB6EB020C5FEA500C50F1000041EBCB
:1009A800045170BD0EF0004E4EEA113114EB5C0498
:1009B800C2BFD4EB0C0541EA045170BD41F480116B
:1009C8004FF0000E013C90E645EA060E8DE60CEA73
:1009D800135594EA0C0F08BF95EA0C0F3FF43BAF90
:1009E80094EA0C0F0AD150EA01347FF434AF95EA47
:1009F8000C0F7FF425AF104619462CE795EA0C0F2B
:100A080006D152EA03353FF4FDAE1046194622E7F7
:100A180050EA410618BF52EA43067FF4C5AE50EAD1
:100A280041047FF40DAF52EA43057FF4EBAE12E7C1
:100A38004FF0FF3C06E000BF4FF0010C02E000BFA2
:100A48004FF0010C4DF804CD4FEA410C7FEA6C5C85
:100A58004FEA430C18BF7FEA6C5C1BD001B050EA28
:100A6800410C0CBF52EA430C91EA030F02BF90EA13
:100A7800020F0020704710F1000F91EA030F58BFD2
:100A8800994208BF90422CBFD8176FEAE37040F034
:100A9800010070474FEA410C7FEA6C5C02D150EAD2
:100AA800013C07D14FEA430C7FEA6C5CD6D152EA8D
:100AB800033CD3D05DF8040B704700BF8446104652
:100AC80062468C461946634600E000BF01B5FFF751
:100AD800B7FF002848BF10F1000F01BD4DF808ED21
:100AE800FFF7F4FF0CBF012000205DF808FB00BFF2
:100AF8004DF808EDFFF7EAFF34BF012000205DF84C
:100B080008FB00BF4DF808EDFFF7E0FF94BF012098
:100B180000205DF808FB00BF4DF808EDFFF7CEFF99
:100B280094BF012000205DF808FB00BF4DF808EDD8
:100B3800FFF7C4FF34BF012000205DF808FB00BFA9
:100B48004FEA410C7FEA6C5C02D150EA013C0AD1C1
:100B58004FEA430C7FEA6C5C02D152EA033C02D1B3
:100B68004FF0000070474FF0010070474FEA410214
:100B780012F5001215D211D56FF47873B3EB6252E7
:100B880012D94FEAC12343F0004343EA505311F00E
:100B9800004F23FA02F018BF404270474FF00000A0
:100BA800704750EA013005D111F0004008BF6FF0DE
:100BB800004070474FF00000704700BF4A0011D254
:100BC80012F5001211D20DD56FF47873B3EB62529F
:100BD8000ED44FEAC12343F0004343EA505323FAAB
:100BE80002F070474FF00000704750EA013002D120
:100BF8004FF0FF3070474FF0000070474FEA410256
:100C0800B2F1E04324BFB3F5001CDCF1FE5C0DD962
:100C180001F0004C4FEAC0024CEA5070B2F1004FAC
:100C280040EB830008BF20F00100704711F0804FAF
:100C380021D113F13872BCBF01F00040704741F474
:100C480080114FEA5252C2F11802C2F1200C10FA78
:100C58000CF320FA02F018BF40F001004FEAC1235C
:100C68004FEAD32303FA0CFC40EA0C0023FA02F300
:100C78004FEA4303CCE77FEA625307D150EA0133D6
:100C88001EBF4FF0FE4040F44000704701F00040A6
:100C980040F0FE4040F40000704700BF53B94AB925
:100CA800002908BF00281CBF4FF0FF314FF0FF306C
:100CB80000F0B8B9ADF1080C6DE904CE00F03CF8CD
:100CC800DDF804E0DDE9022304B0704738B50022FE
:100CD800002304460D46FFF70BFF28B92046294696
:100CE800BDE8384000F00AB8204605F1004100F0A0
:100CF80005F8404261EB410138BD00BFD0B5002284
:100D08000B4B06460F46FFF781FCFFF757FF0446DB
:100D1800FFF702FC0022074BFFF778FC02460B4660
:100D280030463946FFF7BAFAFFF748FF2146D0BDEB
:100D38000000F03D0000F0412DE9F04F099E0D46FE
:100D480004460F46002B46D18A4294465ED9B2FA31
:100D580082F343B102FA03FCC3F120029F409C4096
:100D680020FA02F217434FEA1C4E1FFA8CF5220CA8
:100D7800B7FBFEF10EFB117701FB05F042EA0742D3
:100D8800904208D91CEB020201F1FF3702D29042CF
:100D980000F234813946121AA4B2B2FBFEF00EFBFF
:100DA800102200FB05F544EA0244A54208D91CEBD1
:100DB800040400F1FF3202D2A54200F21981104664
:100DC80040EA0140641B00211EB1DC400023C6E953
:100DD8000043BDE8F08F8B4208D9002E00F0FC805C
:100DE8000021C6E900050846BDE8F08FB3FA83F193
:100DF80000294CD1AB42C0F0F280824240F2EF8031
:100E08000846002EE5D0C6E90047E2E702B9FFDE52
:100E1800B2FA82F3002B40F09F808A1A4FEA1C4EE8
:100E28001FFA8CF70121B2FBFEF50EFB1520220CF0
:100E380042EA004207FB05F090420FD91CEB020280
:100E480005F1FF382CBF4FF001094FF0000990421F
:100E580003D9B9F1000F00F0CE804546121AA4B2AA
:100E6800B2FBFEF00EFB102200FB07F744EA024437
:100E7800A74208D91CEB040400F1FF3202D2A742B2
:100E880000F2B3801046E41B40EA05409CE7C1F13C
:100E980020048B4005FA01FC22FA04F7E5408A4059
:100EA8001F4320FA04F388404FEA174843EA0C032B
:100EB8001FFA87FC4FEA1349B5FBF8FE08FB1E55DD
:100EC80049EA05450EFB0CF9A9450ED97D190EF125
:100ED800FF3A2CBF4FF0010B4FF0000BA94503D987
:100EE800BBF1000F00F08D80D646A5EB09051FFA6F
:100EF80083F9B5FBF8F308FB135503FB0CFC49EA2F
:100F08000545AC4506D97D1903F1FF3801D2AC453A
:100F18007ED8434643EA0E43A5EB0C05A3FB029893
:100F28004545CE46C44602D306D1484504D2013BC6
:100F3800B9EB020E68EB070C002E6FD0B0EB0E0277
:100F480065EB0C05CA4005FA04F4CD401846144375
:100F58000021C6E900453CE702FA03FCC3F1200280
:100F680099409C40D5404FEA1C4E20FA02F21FFAE5
:100F78008CF7B5FBFEF00A430EFB1055110C41EA45
:100F8800054100FB07F58D420ED91CEB010100F16C
:100F9800FF382CBF4FF001094FF000098D4202D9EC
:100FA800B9F1000F31D04046491B92B2B1FBFEF5B2
:100FB8000EFB151142EA014205FB07F1914207D9E0
:100FC8001CEB020205F1FF3801D2914223D84546B5
:100FD800521A45EA004126E731463046F9E6841AB6
:100FE80065EB0302012017460BE7644402384AE721
:100FF80064440238E4E6023D62442FE70239624461
:10100800C9E6AEF1020E3D446FE702386144CBE712
:10101800023B3D447EE7023D6244D9E7184631462B
:10102800D7E600BF704700BF80B582B000AF00238D
:101038007B60012002F080F802467B6813437B60E6
:10104800002002F079F802467B6813437B607B68D6
:1010580018460837BD4680BD80B500AF1B4B1C4AFB
:101068001A601A4B4FF4E1325A60184B00229A600A
:10107800164B0022DA60154B00221A61134B0C2222
:101088005A61124B00229A61104B0022DA610F4B11
:1010980000221A620D4B00225A620C4B00229A62FF
:1010A8000A4810F012FA0346002B02D06FF0020330
:1010B80009E0064810F089FF0346002B02D06FF0C4
:1010C800020300E00023184680BD00BFE4020020B0
:1010D8000038014080B500AF064815F095FC064879
:1010E80015F092FC054815F08FFC034815F08CFCB0
:1010F80000BF80BD489C01084C9C0108B89C0108B1
:1011080080B582B000AF786000BF391D47F2305318
:101118000122054810F029FA0346002BF5D17B6817
:1011280018460837BD4680BDE402002080B582B06D
:1011380000AF00BFF91D4FF0FF330122054810F042
:10114800B2FA0346002BF5D1FB7918460837BD469D
:1011580080BD00BFE402002080B500AF08F0A0FD0C
:1011680000F0BFFA00F0C6FAFFF75EFF01F0A0FA40
:10117800FEE7000080B584B000AF1A4BD3F8943076
:10118800184A43F00403C2F89430164BD3F894304D
:1011980003F00403FB60FB680AF0E8FF114BD3F887
:1011A800A830104A43F00203C2F8A8300D4BD3F818
:1011B800A83003F00203BB60BB680A4BD3F8943035
:1011C800084A43F00403C2F89430064BD3F894302D
:1011D80003F004037B607B680AF0D8FF00BF103778
:1011E800BD4680BD000C024680B5BEB000AF786039
:1011F80007F1E40300221A605A609A60DA601A6103
:1012080007F11803C8220021184615F063FC7B6813
:101218001B68324A93425CD1314BD3F89C30304A38
:1012280043F48043C2F89C302D4BD3F89C3003F430
:1012380080437B617B692A4BD3F88830284A43F086
:101248000103C2F88830264BD3F8883003F0010335
:101258003B613B69224BD3F88C30214A43F00803A9
:10126800C2F88C301E4BD3F88C3003F00803FB60B7
:10127800FB684FF080724FF00003C7E90623002394
:10128800C7F8D03007F1180318460CF03BFA0346AC
:10129800002B01D001F03EFA1A23C7F8E4300223EC
:1012A800C7F8E8300023C7F8EC300223C7F8F0305D
:1012B8000523C7F8F43007F1E4031946094808F094
:1012C80021FF002205213C2008F065FE3C2008F0A3
:1012D8007CFE00BFF837BD4680BD00BF0038004027
:1012E800000C0246000C024280B5BCB000AF78602A
:1012F80007F1DC0300221A605A609A60DA601A610A
:1013080007F11003C8220021184615F0E3FB4FF03F
:1013180001024FF00003C7E9042300233B6607F1ED
:10132800100318460CF0EEF91F4BD3F8A4301E4AF0
:1013380043F48043C2F8A4301B4BD3F8A43003F421
:101348008043FB60FB68184BD3F88C30164A43F097
:101358000103C2F88C30144BD3F88C3003F001032E
:10136800BB60BB684FF4C063C7F8DC300223C7F822
:10137800E0300023C7F8E4300023C7F8E83007233B
:10138800C7F8EC3007F1DC031946084808F0BAFE44
:10139800002205213D2008F0FEFD3D2008F015FE45
:1013A80000BFF037BD4680BD000C02460000024277
:1013B80080B5CEB000AF07F59C73A3F59A7318609B
:1013C8000423C7F8D8308123C7F8E0300023C7F8D2
:1013D800103107F1D80318460AF0E8FE0346002B3F
:1013E80001D001F097F907F59C73A3F594714FF4B8
:1013F80000724FF00003C1E9002307F59C73A3F5C1
:1014080094734FF480629A6707F1100318460CF042
:1014180079F90346002B01D001F07CF9194BD3F878
:10142800A830184A43F40063C2F8A830154BD3F823
:10143800A83003F4006207F59C73A3F596731A604D
:1014480007F59C73A3F596731B680E4BD3F8803091
:101458000C4A43F40063C2F880300A4BD3F880305A
:10146800084A23F40063C2F880300F220F2143207A
:1014780008F091FD432008F0A8FD00BF07F59C7710
:10148800BD4680BD000C024680B400AFFEE780B4C4
:1014980000AFFEE780B400AFFEE780B400AFFEE720
:1014A80080B400AFFEE780B400AFFEE780B400AFC1
:1014B80000BFBD465DF8047B704780B400AF00BF35
:1014C800BD465DF8047B704780B400AF00BFBD46E1
:1014D8005DF8047B704780B500AF08F03DFC00BFA5
:1014E80080BD000080B500AF02480FF00DFD00BFC1
:1014F80080BD00BF140C002080B500AF4FF48040C1
:1015080009F000F900BF80BD80B500AF4FF400407E
:1015180009F0F8F800BF80BD80B500AF02480AF0B6
:10152800BAF900BF80BD00BF7C03002080B400AFC3
:1015380001231846BD465DF8047B704780B582B02C
:1015480000AF7860396015F049FB034616221A602F
:101558004FF0FF3318460837BD4680BD80B582B0CE
:1015680000AF78604FF0FF317868FFF7E7FFFEE7DC
:1015780080B586B000AFF860B9607A6000237B61FF
:101588000AE0FFF7D3FD0146BB685A1CBA60CAB22D
:101598001A707B6901337B617A697B689A42F0DB58
:1015A8007B6818461837BD4680BD80B586B000AF49
:1015B800F860B9607A6000237B6109E0BB685A1C57
:1015C800BA601B781846FFF79BFD7B6901337B6186
:1015D8007A697B689A42F1DB7B6818461837BD4602
:1015E80080BD80B483B000AF78604FF0FF331846F9
:1015F8000C37BD465DF8047B704780B483B000AFFC
:10160800786039603B684FF400525A6000231846EE
:101618000C37BD465DF8047B704780B483B000AFDB
:101628007860012318460C37BD465DF8047B704787
:1016380080B485B000AFF860B9607A6000231846BE
:101648001437BD465DF8047B7047000080B586B04E
:1016580000AF7860144A154BD31A7B617B693B61F4
:10166800134B1B68002B02D1114B124A1A60104B06
:101678001A687B6813443A699A4207D215F0AEFAA1
:1016880003460C221A604FF0FF3309E0084B1B6831
:10169800FB60074B1A687B681344054A1360FB68B4
:1016A80018461837BD4680BD00000C200080000099
:1016B800780300209834002080B500AFFFF7CCFCF9
:1016C8000346002B02D06FF0010308E000F07EF81B
:1016D8000346002B02D06FF0010300E000231846F8
:1016E80080BD80B500AF002009F0B4FE09F0D2FE3D
:1016F80000BF80BD80B59EB000AF07F16003002237
:101708001A605A609A60DA601A615A613B46602230
:101718000021184615F0DEF94FF440300AF09AFC23
:101728000346002B02D06FF001034AE038233B60E8
:101738004FF48053FB624FF080637B610123FB61B0
:1017480010233B6200237B620023BB610223BB633F
:101758000123FB634FF400537B6403233B640F2393
:10176800BB640223FB6402233B6502237B650C23D5
:10177800BB650023FB653B4618460AF017FD034688
:10178800002B02D06FF001031BE01F233B660323ED
:101798007B660023BB660023FB6600233B670023B0
:1017A8007B6707F16003032118460BF0DBFB034658
:1017B800002B02D06FF0010303E0042008F020FCA6
:1017C800002318467837BD4680BD000080B582B03A
:1017D80000AF2A4B2A4A1A60284B00225A60274B2E
:1017E80000229A60254B00229A62244B0022DA607C
:1017F800224B00221A61214B4FF6FF725A611F4B90
:101808004FF400329A611D4B40F267621A621B4B1B
:1018180000225A63194809F04DFE0346002B02D0F6
:101828006FF0010326E0174A092114480AF038FA34
:101838000346002B02D06FF001031BE040F2333364
:101848003B6001237B603B46002219460B4809F0A8
:10185800EFFF0346002B02D06FF001030AE00021DE
:10186800064809F033FF0346002B02D06FF001034E
:1018780000E0002318460837BD4680BD7C030020E1
:10188800004400469118000880B582B000AF786027
:10189800012001F0EDFC00BF0837BD4680BD000007
:1018A800DFF834D008F0C4F9002103E00B4B5B5893
:1018B800435004310A480B4B42189A42F6D30A4A5D
:1018C80002E0002342F8043B084B9A42F9D315F092
:1018D8008BF9FFF741FCFEE700000C2048D2010815
:1018E80000000020C8020020C80200209834002010
:1018F800FEE7000080B588B000AF7860396000234B
:10190800FB6007F1100300221A605A609A60DA60DF
:101918007868FEF7ADFC03461A460021786815F092
:10192800D9F8304B1B681946786815F09FF92D4B8C
:10193800DB691946786815F06FF82A4B1B6A194657
:10194800786815F069F8274B5B6A1946786815F0CE
:1019580063F8244B9B6A1946786815F05DF8214BAB
:10196800DB681946786815F057F81F4B1B6819464D
:10197800786815F051F81B4B1B691946786815F003
:101988004BF8184B5B691946786815F045F807F16C
:101998000C033A681549184613F076FF07F10C0353
:1019A8001946786815F038F87868FEF761FC034640
:1019B8001A467B6813440E4A1188927819809A70E7
:1019C800084B9B681946786815F026F8054B9B6903
:1019D8001946786815F020F8002318462037BD46C8
:1019E80080BD00BF0000002030000020EC9F0108EF
:1019F800F09F010880B588B000AF78603960002397
:101A0800FB6007F1100300221A605A609A60DA60DE
:101A18007868FEF72DFC03461A460021786815F011
:101A280059F8274B1B681946786815F01FF9244B9D
:101A3800DB691946786814F0EFFF214BDB6819461B
:101A4800786814F0E9FF1F4B5B681946786814F052
:101A5800E3FF1B4B1B691946786814F0DDFF184B30
:101A68005B691946786814F0D7FF07F10C033A68E8
:101A78001549184613F008FF07F10C031946786852
:101A880014F0CAFF7868FEF7F3FB03461A467B6832
:101A980013440E4A1188927819809A70084B9B68F3
:101AA8001946786814F0B8FF054B9B6919467868A1
:101AB80014F0B2FF002318462037BD4680BD00BF92
:101AC8000000002030000020EC9F0108F09F010872
:101AD80080B588B000AF786039600023FB6007F1FB
:101AE800100300221A605A609A60DA607868FEF77C
:101AF800BFFB03461A460021786814F0EBFF274B1A
:101B08001B681946786815F0B1F8244BDB6919464B
:101B1800786814F081FF214BDB681946786814F067
:101B28007BFF1F4B9B681946786814F075FF1B4BA9
:101B38001B691946786814F06FFF184B5B691946E2
:101B4800786814F069FF07F10C033A6815491846DC
:101B580013F09AFE07F10C031946786814F05CFF3D
:101B68007868FEF785FB03461A467B6813440E4ADD
:101B78001188927819809A70084B9B681946786882
:101B880014F04AFF054B9B691946786814F044FF26
:101B9800002318462037BD4680BD00BF0000002046
:101BA80030000020EC9F0108F09F010880B588B044
:101BB80000AF786039600023FB6007F11003002252
:101BC8001A605A609A60DA607868FEF751FB03463B
:101BD8001A460021786814F07DFF2A4B1B681946C5
:101BE800786815F043F8274BDB691946786814F0D4
:101BF80013FF244BDB6A1946786814F00DFF214B5C
:101C0800DB681946786814F007FF1F4BDB68194634
:101C1800786814F001FF1B4B1B691946786814F0AB
:101C2800FBFE184B5B691946786814F0F5FE07F15E
:101C38000C033A681549184613F026FE07F10C0301
:101C48001946786814F0E8FE7868FEF711FB034639
:101C58001A467B6813440E4A1188927819809A7044
:101C6800084B9B681946786814F0D6FE054B9B69AB
:101C78001946786814F0D0FE002318462037BD4670
:101C880080BD00BF0000002030000020EC9F01084C
:101C9800F09F010880B588B000AF786039600023F4
:101CA800FB6007F1100300221A605A609A60DA603C
:101CB8007868FEF7DDFA03461A460021786814F0C2
:101CC80009FF214B1B681946786814F0CFFF1E4B9B
:101CD800DB681946786814F09FFE1B4B1B69194690
:101CE800786814F099FE184B5B691946786814F007
:101CF80093FE07F10C033A681449184613F0C4FD23
:101D080007F10C031946786814F086FE7868FEF728
:101D1800AFFA03461A467B6813440D4A1188927835
:101D280019809A70084B9B681946786814F074FEFD
:101D3800054B9B691946786814F06EFE0023184617
:101D48002037BD4680BD00BF00000020EC9F010881
:101D5800F09F010880B588B000AF78603960002333
:101D6800FB6007F1100300221A605A609A60DA607B
:101D78007868FEF77DFA03461A460021786814F061
:101D8800A9FE214B1B681946786814F06FFF1E4B9B
:101D9800DB681946786814F03FFE1B4B1B6919462F
:101DA800786814F039FE184B5B691946786814F0A6
:101DB80033FE07F10C033A681449184613F064FD22
:101DC80007F10C031946786814F026FE7868FEF7C8
:101DD8004FFA03461A467B6813440D4A11889278D5
:101DE80019809A70084B9B681946786814F014FE9D
:101DF800054B9B691946786814F00EFE00231846B7
:101E08002037BD4680BD00BF00000020EC9F0108C0
:101E1800F09F010880B588B000AF78603960002372
:101E2800FB6007F1100300221A605A609A60DA60BA
:101E38007868FEF71DFA03461A460021786814F000
:101E480049FE244B1B681946786814F00FFF214B94
:101E5800DB681946786814F0DFFD1F4B5B6919468B
:101E6800786814F0D9FD1B4B1B691946786814F083
:101E7800D3FD184B5B691946786814F0CDFD07F15E
:101E88000C033A681549184613F0FEFC07F10C03D9
:101E98001946786814F0C0FD7868FEF7E9F903463A
:101EA8001A467B6813440E4A1188927819809A70F2
:101EB800084B9B681946786814F0AEFD054B9B6982
:101EC8001946786814F0A8FD002318462037BD4647
:101ED80080BD00BF0000002030000020EC9F0108FA
:101EE800F09F010880B588B000AF786039600023A2
:101EF800FB6007F1100300221A605A609A60DA60EA
:101F08007868FEF7B5F903461A460021786814F098
:101F1800E1FD244B1B681946786814F0A7FE214B95
:101F2800DB681946786814F077FD1F4B9B691946E2
:101F3800786814F071FD1B4B1B691946786814F01A
:101F48006BFD184B5B691946786814F065FD07F15D
:101F58000C033A681549184613F096FC07F10C0370
:101F68001946786814F058FD7868FEF781F9034639
:101F78001A467B6813440E4A1188927819809A7021
:101F8800084B9B681946786814F046FD054B9B6919
:101F98001946786814F040FD002318462037BD46DE
:101FA80080BD00BF0000002030000020EC9F010829
:101FB800F09F010880B590B002AF07F1200300221E
:101FC8001A605A609A60DA600023FB614FF0FF33B1
:101FD800BB6100237B635A4814F016FD594814F07E
:101FE80013FD06220121022010F078FE78637B6B36
:101FF800002B05DA544814F007FD6FF007039BE047
:10200800524814F001FD524814F0FEFC514B1B6875
:1020180004220092032240F6FF71786B11F0ACF9AC
:1020280007F118030422009241F2060240F6FF71FC
:10203800786B11F0A1F9484814F0E6FC022387F800
:102048002130102387F82030424B1B6807F11C020F
:102058001146184610F02AFCFB697B6207F1200341
:102068005021184610F07AF807F12003102219467B
:10207800786B10F073FE0346002B05D0374814F038
:10208800C3FC6FF0070357E0354814F0BDFC354832
:1020980014F0BAFC0521786B10F070FF0346002B92
:1020A80005D0314814F0B0FC6FF0070344E02F4826
:1020B80014F0AAFC07F11C03184610F039F8014681
:1020C8007B8C5BBA9BB21A46294814F02FFC07F1A7
:1020D800080300221A605A609A60DA6010237B6055
:1020E8003A1D07F108031946786B10F0AFFE386304
:1020F8003B6B002B1BDD00233B60FB683B603B46D2
:10210800184610F015F801467B895BBA9BB21A464F
:10211800184814F00BFC386B00F032F80346002B1B
:10212800D5D0154814F070FC6FF0070304E013488D
:1021380014F06AFC6FF0070318463837BD4680BDB7
:10214800F49F0108F89F010810A0010834A00108B5
:102158004CA00108100C002064A0010884A001080C
:10216800A8A00108C4A00108ECA0010814A1010856
:102178002CA101084CA1010864A101088CA1010847
:1021880080B586B002AF786040F2DC520021344856
:1021980014F0A0FC002340F2DC523149786810F0BA
:1021A800DBFF0346002B02DA6FF0060354E02D4BE9
:1021B8001B681A462C492A4814F03DFC0346002B9C
:1021C8003DD1284B1B68264A1344284A12682849DF
:1021D800184614F030FC0346002B09D1254B1B6828
:1021E8000093254B254A0021786800F051F829E032
:1021F8001C4B1B681A4A1344214A12682149184685
:1022080014F019FC0346002B1CD107F1080207F152
:102218000C031146184600F015FAFA68BB681A490B
:102228001A4813F031FB1948FEF722F803460093C9
:10223800164B124A0421786800F02AF802E06FF081
:10224800060309E0786811F013F80346002B02D062
:102258006FF0060300E0002318461037BD4680BD26
:102268003406002040B5010838B5010848B5010812
:1022780044B501082CCC010864B5010840040020CD
:1022880060B501084CB50108B8A101080C0400208C
:1022980080B584B000AFF860B9607A603B60BB6914
:1022A8007A68B968F86800F017F80346002B02D07E
:1022B8006FF006030BE0BA693968F86800F0AEF809
:1022C8000346002B02D06FF0060300E000231846F7
:1022D8001037BD4680BD000080B584B000AFF860FF
:1022E800B9607A603B60BB680A2B71D801A252F8CA
:1022F80023F000BF29230008552300083F230008C6
:102308006B23000897230008D9230008D923000865
:10231800D923000881230008AD230008C32300083F
:102328003B6819467868FFF7E5FA0346002B52D058
:102338006FF006036EE03B6819467868FFF75AFBB2
:102348000346002B49D06FF0060363E03B6819464B
:102358007868FFF7BDFB0346002B40D06FF00603FB
:1023680058E03B6819467868FFF720FC0346002BC5
:1023780037D06FF006034DE03B6819467868FFF7E1
:10238800E9FC0346002B2ED06FF0060342E03B68C1
:1023980019467868FFF77EFC0346002B25D06FF0BE
:1023A800060337E03B6819467868FFF733FD0346B4
:1023B800002B1CD06FF006032CE03B6819467868A8
:1023C800FFF790FD0346002B13D06FF0060321E0C2
:1023D8006FF006031EE000BF0CE000BF0AE000BF7C
:1023E80008E000BF06E000BF04E000BF02E000BF55
:1023F80000E000BF7868FDF73BFF03461A4679689E
:10240800F86800F00BF80346002B02D06FF00603C3
:1024180000E0002318461037BD4680BD80B586B061
:1024280000AFF860B9607A607B687B6100233B612C
:102438002BE07B69B3F5166F17D3BA683B69D118DF
:1024480000234FF41662F86810F008FE0346002BCC
:1024580002D16FF006031CE07B69A3F516637B616C
:102468003B6903F516633B610FE0BA683B69D11815
:1024780000237A69F86810F0F1FD0346002B02D1B9
:102488006FF0060305E000237B617B69002BD0D148
:10249800002318461837BD4680BD000080B58CB0B3
:1024A80000AF0023FB620221002001F04DFB034630
:1024B800002B02D0FB6A013BFB6207F110031946AF
:1024C800002001F08DFB0346002B02D0FB6A013B84
:1024D800FB6207F10F031946002001F0B9FB034620
:1024E800002B02D0FB6A013BFB620221002001F0B5
:1024F800E7FB0346002B02D0FB6A013BFB6210227C
:102508000221002001F018FE0346002B02D0FB6ACE
:10251800013BFB623B461A460221002001F0ACFD5C
:102528000346002B02D0FB6A013BFB623B68102B81
:1025380002D0FB6A013BFB6202220221002001F06B
:10254800FBFD0346002B02D0FB6A013BFB623B46C6
:102558001A460221002001F08FFD0346002B02D00D
:10256800FB6A013BFB623B68022B02D0FB6A013B22
:10257800FB629FED300A0221002001F01DFD034699
:10258800002B02D0FB6A013BFB623B1D1A4602216D
:10259800002001F0B1FC0346002B02D0FB6A013B8E
:1025A800FB62D7ED017A9FED247AF4EE477AF1EEDB
:1025B80010FA02D0FB6A013BFB629FED200A022160
:1025C800002001F0F9FC0346002B02D0FB6A013B16
:1025D800FB623B1D1A460221002001F08DFC0346D8
:1025E800002B02D0FB6A013BFB62D7ED017A9FED1D
:1025F800137AF4EE477AF1EE10FA02D0FB6A013B47
:10260800FB6207F108031A460221002001F014FCBE
:102618000346002B02D0FB6A013BFB62FB6A002BDE
:1026280002DA074814F0F0F9FB6A18463037BD465D
:1026380080BD00BF005050450058D04500005043B1
:10264800C0A1010880B586B000AF7860396000236A
:102658007B6107F108031A460221002001F08CFB78
:102668000346002B02D07B69013B7B617B69002B11
:1026780003DA7969064814F059F9BA687B681A6070
:10268800FA683B681A6000BF1837BD4680BD00BFB6
:10269800C8A1010880B582B000AF00237B60FFF7B6
:1026A800FDFE78607B6818460837BD4680BD00008F
:1026B80080B500AF164B1B689B680021184612F0C6
:1026C800EDFFFEF7F9FF0346002B01D000F022F8DA
:1026D80000F02BF80346002B01D000F01BF8FEF7A2
:1026E800F9FC00F031F80346002B01D000F012F895
:1026F800FFF7D0FF0346002B01D000F00BF8FFF7DF
:1027080059FC0346002B01D000F004F800BF80BD3F
:10271800C402002080B500AF72B600BF012000F0EF
:102728005DFD002000F086FDFEE780B500AF00F0FB
:1027380039F900F0DFF80346002B02D06FF00503EB
:1027480000E00023184680BD80B500AF104911484D
:1027580000F0FAFB0346104A13600F4B1B6818463B
:102768000FF01FFD0346002B0ED10021002000F0C2
:102778002FFB0A490A4800F045FA074B186800235E
:10278800074A012100F028FC0023184680BD00BF3D
:10279800AD2700083D3A0108100C0020A40C0020C9
:1027A8004C000020B0B58AB004AFF860B9607A6018
:1027B8003B60FB687B61BB68002B7AD17B68FB744C
:1027C800FB7C082B74D801A252F823F0A928000832
:1027D800F9270008012800080928000875280008BA
:1027E8007D280008A128000899280008B1280008B9
:1027F800324814F009F95CE0314814F005F958E062
:10280800304814F001F97B69253319462E4814F035
:102818008DF87B69653319462C4814F087F87B6975
:10282800A53319462A4814F081F87B6993F8E530F6
:1028380018467B6993F8E6301C467B6993F8E730C5
:102848001D467B6993F8E8301A467B6993F8E930AE
:1028580019467B6993F8EA300293019100922B465E
:10286800224601461B4814F061F822E01A4814F089
:10287800CBF81EE0194814F0C7F87B6904331846F2
:102888000FF056FC03461946154814F04FF810E0AF
:10289800144814F0B9F80CE0134814F0B5F808E03F
:1028A800124814F0B1F804E0114814F0ADF800E053
:1028B80000BF00BF1837BD46B0BD00BFDCA101088E
:1028C80000A2010820A201083CA2010858A20108A0
:1028D80074A2010890A20108B8A20108DCA20108AC
:1028E800FCA2010818A301083CA301085CA3010885
:1028F80080A3010880B500AF284B294A1A60274BEE
:102908004FF480025A60254B00229A60234B07221D
:10291800DA60224B00221A61204B00225A611F4BB9
:102928004FF080629A611D4B4FF00052DA611B4BE9
:1029380000221A62194B00225A62184B00229A622E
:10294800164B0722DA62154B00225A63134B0022FA
:102958009A63124B0022DA63104B00229A640F4BE1
:102968000022DA640D4B00221A650C4B00225A65CE
:102978000A4B00229A65094B0022DA65074B0022B0
:102988001A6606480DF09EFB0346002B02D06FF036
:10299800040300E00023184680BD00BF140C00208B
:1029A8000038004080B58CB000AF07F11C0300224E
:1029B8001A605A609A60DA601A61634BD3F88C30F7
:1029C800614A43F04003C2F88C305F4BD3F88C3037
:1029D80003F04003BB61BB695B4BD3F88C305A4AA8
:1029E80043F00403C2F88C30574BD3F88C3003F013
:1029F80004037B617B69544BD3F88C30524A43F013
:102A08000803C2F88C30504BD3F88C3003F008031D
:102A18003B613B694C4BD3F88C304B4A43F0010384
:102A2800C2F88C30484BD3F88C3003F00103FB60BC
:102A3800FB68454BD3F88C30434A43F00203C2F895
:102A48008C30414BD3F88C3003F00203BB60BB6879
:102A58003D4BD3F88C303C4A43F02003C2F88C300D
:102A6800394BD3F88C3003F020037B607B6800225D
:102A78004FF40041354807F013FE00224FF480411F
:102A8800334807F00DFE01224FF48051314807F01A
:102A980007FE4FF40043FB612F4B3B6200237B6230
:102AA80007F11C0319462D4807F02CFB4FF400438F
:102AB800FB6101233B6200237B620023BB6207F1B9
:102AC8001C031946214807F01DFB4FF48043FB61A6
:102AD80001233B6200237B620023BB6207F11C03D6
:102AE80019461B4807F00EFB4FF48053FB61012386
:102AF8003B6200237B620023BB6207F11C0319467B
:102B0800144807F0FFFA4FF48043FB61124B3B6215
:102B180000237B6207F11C0319460D4807F0F2FAFF
:102B280000220521192007F036FA192007F04DFA7E
:102B3800002205211A2007F02EFA1A2007F045FA7C
:102B480000BF3037BD4680BD000C0246001402426B
:102B5800000C024200040242000011100018024258
:102B680080B582B000AF0346FB80FB88B3F5804F89
:102B780007D0B3F5004F09D14FF4004006F0A4FD8B
:102B880005E04FF4804006F09FFD00E000BF00BF65
:102B98000837BD4680BD000080B582B000AF7860C0
:102BA8007B68054A934202D1786806F06DFD00BF44
:102BB8000837BD4680BD00BF140C002080B582B028
:102BC80000AF78607B68054A934202D1786806F0C6
:102BD8005BFD00BF0837BD4680BD00BF140C002058
:102BE80080B582B000AF78607B68054A934202D115
:102BF800786806F049FD00BF0837BD4680BD00BFB4
:102C0800140C00202DE9F04393B008AF78613961C6
:102C18000022002100200FF0ABFB78627B6A002BBA
:102C280005D16422674900200FF004FC78627B6AB2
:102C3800002B40F3C18000233B62B8E00023FB6116
:102C4800AAE03B6A342202FB03F35E4A1344581C91
:102C5800FB69DB003A6913441B681946FDF710FB52
:102C68000346002B40F09580FB69DB003A6913446A
:102C78001A687B691A60FB69DB003A6913445A6871
:102C88007B695A604F4A3B6A342101FB03F31344C2
:102C980028331B681A467B699A604B4813F0B4FEC8
:102CA800494813F0B1FE3B6A342202FB03F3454A5C
:102CB80013445C1C434A3B6A342101FB03F313446D
:102CC8002C331B7898463F4A3B6A342101FB03F3B7
:102CD8001344313393F9003099463A4A3B6A342118
:102CE80001FB03F3134428331B6818460FF068FAF6
:102CF80001463B6A342202FB03F32833314A13446A
:102D0800053330483A6A342505FB02F20244213281
:102D1800127816462B483A6A342505FB02F202441B
:102D280022321278FA6027483A6A342505FB02F203
:102D3800024423321278BA6022483A6A342505FBE5
:102D480002F20244243212787A601E483A6A342524
:102D580005FB02F20244253212783A6019483A6AB1
:102D6800342505FB02F202442632127807923868AD
:102D7800069078680590B8680490FA6803920296FD
:102D8800019300914B4642462146104813F0CEFD70
:102D980013E0FB690133FB61FB69DB003A6913440B
:102DA8001B68002B7FF44DAF3B6A01333B627B6AA3
:102DB8003A6A9A42FFF442AF00BF2C37BD46BDE8DD
:102DC800F08300BFB40C0020CCA30108D0A30108F5
:102DD8002DE9F04194B00AAFF861B96100220021F1
:102DE80000200FF0C5FA78627B6A002B05D16422B7
:102DF800504900200FF01EFB78627B6A002B40F3DD
:102E080093804D4813F000FE4C4813F0FDFD4A48EE
:102E180013F0FAFD00233B6279E03B6A342202FB9F
:102E280003F3444A13445C1C424A3B6A342101FBC5
:102E380003F313442C331B7898463E4A3B6A3421EB
:102E480001FB03F31344313393F900301E46394A2A
:102E58003B6A342101FB03F3134428331B681846EB
:102E68000FF0AEF901463B6A342202FB03F3283324
:102E7800304A134405332F483A6A342505FB02F2D9
:102E88000244213212787A612A483A6A342505FBCD
:102E980002F20244223212783A6126483A6A34250C
:102EA80005FB02F2024423321278FA6021483A6A9A
:102EB800342505FB02F2024424321278BA601D4818
:102EC8003A6A342505FB02F20244253212787A6008
:102ED80018483A6A342505FB02F202442632127871
:102EE800089278680790B8680690F868059038697D
:102EF80004907A6903920293019100964346224610
:102F0800396A0F4813F012FD3B6A01333B623A6A93
:102F18007B6A9A4281DB084813F076FD094813F072
:102F280073FD054813F070FD002318462837BD4689
:102F3800BDE8F081B40C0020CCA301083CA4010832
:102F480054A40108ACA4010880B586B000AF78602D
:102F580039606FF003037B61F82011F04DFF0346E1
:102F68003B613B69002B02D1184813F04DFDF82254
:102F78000021386913F0AEFD082011F03DFF03462B
:102F8800FB60FB68002B02D1114813F03DFDFB6884
:102F98003A681A60FB683A695A60FA687968386969
:102FA8000FF0EAFB78617B69002B07D14EF66022AF
:102FB800012138690FF088FB786102E0054813F0B9
:102FC80023FD3B6918461837BD4680BDC4A40108D7
:102FD800ECA401080CA5010880B58AB000AFF86020
:102FE8007A601A460B46FB721346BB726FF01C03DD
:102FF8007B62F8680FF0D5F80346002B37D17B6861
:103008003B623B6A5B68002B02D13B6A00229A60F4
:10301800BB7A012B0AD10023FB723B6A3C4A1A6037
:103028003B6A3C4A5A603B6A00229A60396AF868EF
:103038000FF050FABB7A1946F8680FF05DFA0821CC
:10304800F8680FF06CFA0421F8680FF07BFABF22D9
:103058003149324813F06AFC3B6A1A683B6A1B68BC
:10306800396A2F4813F062FC0A2013F071FCF868E3
:103078000FF0D0FB78627B6A002B3CD14EF66022C1
:103088000321F8680FF020FB78627B6A002B29D1B6
:10309800FB7A002B04D00121F8680FF04FFC13E0F5
:1030A800204BFB611F4BBB611F4B7B610021F86804
:1030B8000FF044FC0121F8680FF05BFC7B69BA69EA
:1030C800F969F8680FF070FCF8680FF0B0FB7862E7
:1030D8007B6A002B06D14EF660220521F8680FF0B6
:1030E800F3FA78627B6A002B05D0104813F08CFC49
:1030F8000F4813F089FC7B6A002B05D00D4813F0AC
:1031080083FC0B4813F080FC00BF2837BD4680BD08
:103118006CA5010878A501087CA5010804A601088A
:103128000CA60108C0A80101FFFFFE0024A60108A3
:103138004CA60108B8A6010880B58AB000AF0346BE
:10314800FB7100237B62224BD3F88C30204A43F07A
:103158008003C2F88C301E4BD3F88C3003F0800308
:10316800FB60FB681A4BD3F88C30194A43F0800394
:10317800C2F88C30164BD3F88C3003F08003BB6058
:10318800BB6801237B610023BB610223FB61FB79E0
:10319800104A52F823303B61FB790F4A52F823302A
:1031A80007F110021146184606F0ACFFFB790A4AEF
:1031B80052F82300FB79074A52F823309BB20122C8
:1031C800194607F06DFA7B6A18462837BD4680BD58
:1031D800000C024630CC01085800002080B588B0A9
:1031E80000AF0346FB710023FB61FB790F4A52F8DD
:1031F8002330BB60FB790E4A52F82300FB790B4A57
:1032080052F823309BB20022194607F049FAFB799D
:10321800074A52F82330BA681146184607F04AF9A7
:10322800FB6918462037BD4680BD00BF30CC010879
:103238005800002080B584B000AF0346FB71FB79CD
:10324800094A52F82300FB79084A52F823309BB206
:103258000022194607F024FA0023FB60FB68184691
:103268001037BD4680BD00BF5800002030CC010893
:1032780080B584B000AF0346FB71FB79094A52F868
:103288002320FB79084951F823309BB21946104690
:1032980007F01EFA0023FB60FB6818461037BD468E
:1032A80080BD00BF5800002030CC010880B582B036
:1032B80000AF00237B60164B164A1A60164B1B683A
:1032C800002B1FD1144B1B680133134A136010489D
:1032D80007F056FD0346002B14D10D4800F060FBA3
:1032E8000AF04EF903460D49184600F0E3F8034684
:1032F8001946074800F038F80346002B02D06FF053
:1033080007037B607B6818460837BD4680BD00BF51
:103318000C2B00200058004004210020A08601004A
:1033280080B582B000AF00237B600D4B1B68013B6A
:103338000B4A13600A4B1B68002B0BD1094800F09D
:1033480095FB084807F0AAFA0346002B02D06FF055
:1033580007037B607B6818460837BD4680BD00BF01
:10336800042100200C2B002080B584B000AF7860C9
:1033780039600023FB737B683A685A607B680022D7
:103388009A607B680122DA607B6800221A617B6898
:1033980000225A617B6800229A617B680022DA6108
:1033A8007B6800221A62786807F0DDF90346002B73
:1033B80002D00123FB7314E00023BB60B96878686E
:1033C80007F0B0FF0346002B02D00123FB7308E08F
:1033D8000021786807F0F1FF0346002B01D0012394
:1033E800FB73FB7B18461037BD4680BD80B588B09F
:1033F80002AFBA601A460346FB810B46BB811346EF
:10340800FB80B989F889FB880093BB68012200F02A
:103418004FFB0346002B02D100237B610CE00948D7
:1034280007F0BCFC0346042B03D16FF065037B61F6
:1034380002E06FF003037B617B6918461837BD46CD
:1034480080BD00BF0C2B002080B588B002AFBA60E9
:103458001A460346FB810B46BB811346FB80B9899C
:10346800F889FB880093BB68012200F047FB0346FC
:10347800002B02D100237B610CE0094807F08EFC89
:103488000346042B03D16FF065037B6102E06FF004
:1034980003037B617B6918461837BD4680BD00BFB2
:1034A8000C2B002080B500AF06F06AFC03461846D6
:1034B80080BD000080B586B000AF78603960002319
:1034C8007B617B68002B6BD03B68002B68D00023A6
:1034D8003B6160E0354A3B692C2101FB03F313444F
:1034E80004331B683A689A4252D3304A3B692C210C
:1034F80001FB03F3134408331B683A689A4247D820
:103508003969786800F056F83969786800F040F948
:10351800F860FB687F2B42D82549FA6813469B0060
:1035280013449B000B441B6819072148FA6813468B
:103538009B0013449B00034404331B681B0503F4DE
:10354800700319431A48FA6813469B0013449B00FA
:10355800034408331B681B0403F4702319431448FD
:10356800FA6813469B0013449B0003440C331B6802
:103578001B029BB219430E48FA6813469B0013447A
:103588009B00034410331B68DBB20B437B6106E0EE
:103598003B6901333B613B69022B9BD900E000BFCB
:1035A8007B6918461837BD4680BD00BF38CC010876
:1035B8000821002080B48FB000AF786039601023F4
:1035C8007B637B685A086E4B13447A68B3FBF2F34B
:1035D800FB613223BB614FF482737B61694A3B68AC
:1035E8002C2101FB03F3134424331B681846654A56
:1035F8003B682C2101FB03F313440C331B68C218EE
:10360800BB69D21A5F493B682C2000FB03F30B44CB
:1036180028331B680333F96901FB03F3D31A3B63AF
:10362800584A3B682C2101FB03F3134410331B68F1
:103638001846544A3B682C2101FB03F313442033FA
:103648001B68C21A7B69D21A4E493B682C2000FBC2
:1036580003F30B4428331B680433F96901FB03F3B4
:10366800D31AFB62474A3B682C2101FB03F313443E
:1036780020331B681846434A3B682C2101FB03F39F
:10368800134414331B6803443B613B6B002B01DC80
:1036980000233B63FB6A002B01DC0023FB62002351
:1036A800BB6262E000237B6259E07B6A0133BA6A3D
:1036B800013203FB02F2FB6902FB03F3FB603B6987
:1036C800FA689A4248D300233B6242E0BB6A01335E
:1036D8003A6A03FB02F2FB6902FB03F3BB603B6B34
:1036E800BA689A4232D3FB6ABA689A422ED8BA6A42
:1036F8007B6B9A422AD0244B1A68244913469B00B4
:1037080013449B000B44BA6A1A601F4B1A681F497E
:1037180013469B0013449B000B4404337A6A1A60D7
:10372800194B1A68194913469B0013449B000B4414
:1037380008333A6A1A60BB6A7B63134B1B68013310
:10374800114A1360104B1B687F2B12D83B6A013358
:103758003B623B6A0F2BB9D97B6A01337B627B6A78
:103768000F2BA2D9BB6A0133BB62BB6A0F2B99D955
:1037780000E000BF3C37BD465DF8047B704700BFE2
:1037880000CA9A3B38CC0108082B002008210020E9
:1037980080B493B000AF786039604FF0FF337B643A
:1037A8007B685A087A4B13447A68B3FBF2F3FB62DE
:1037B800784A3B682C2101FB03F313441B685A0821
:1037C800734B134473493A682C2000FB02F20A44F5
:1037D8001268B3FBF2F3BB6232237B626D4A3B682B
:1037E8002C2101FB03F3134428331A68FB6A02FBFC
:1037F80003F33B62674A3B682C2101FB03F3134444
:1038080004331B68624AB2FBF3F3FB61614A3B680D
:103818002C2101FB03F3134408331B685C4AB2FBF9
:10382800F3F3BB61BB6A3B6400237B63A3E05A49A3
:103838007A6B13469B0013449B000B441B685A1C6D
:10384800FB6A02FB03F37B610023FB638CE07A6A6B
:103858003B6A1A44FB6B0133796903FB01F1FB6A8C
:103868005B000B4413443B614A4A3B682C2101FB33
:1038780003F3134418331B683A699A4271D93A69B9
:103888007B6AD21A3B6AD31A9B08FA6A9A4268D2B0
:103898000023BB6362E07A6A3B6A1A44BB6B01335C
:1038A800796903FB01F1FB6A5B000B441344FB607D
:1038B8003A69FB681A4437493B682C2000FB03F33C
:1038C8000B4420331B681A4432493B682C2000FB08
:1038D80003F30B4424331B681344BB60BA68BB6909
:1038E8009A4238D3BA68FB699A4234D8294A3B6865
:1038F8002C2101FB03F313441C331B68FA689A421A
:1039080029D3FA6AFB689A4225D2BA68BB6AD31AE5
:103918003B633B6B002B02DA3B6B5B423B633B6BCD
:103928003A6C9A4217D93B6B3B641B497A6B134636
:103938009B0013449B000B441033FA6B1A60164922
:103948007A6B13469B0013449B000B440C33BA6BF1
:103958001A607B6B7B64BB6B0133BB63BB6BFF2B58
:1039680099D9FB6B0133FB63FB6BFF2B7FF66FAFC2
:103978007B6B01337B63094B1B687A6B9A42FFF4BC
:1039880056AF7B6C18464C37BD465DF8047B7047D4
:1039980000CA9A3B38CC010808210020082B0020D7
:1039A80080B58AB000AF78602E4BD3F88C302D4AA2
:1039B80043F08003C2F88C302A4BD3F88C3003F0E4
:1039C80080033B613B69274BD3F88C30254A43F091
:1039D8008003C2F88C30234BD3F88C3003F080037B
:1039E800FB60FB6810237B611223BB610123FB6131
:1039F80002233B6204237B6207F1140319461A4829
:103A080006F080FB20237B611223BB610123FB614D
:103A180002233B6204237B6207F114031946124810
:103A280006F070FB0F4BD3F89C300E4A43F480032A
:103A3800C2F89C300B4BD3F89C3003F48003BB6076
:103A4800BB68084B5B6F074A43F480035367054B19
:103A58005B6F044A23F48003536700BF2837BD46D1
:103A680080BD00BF000C0246001C024280B588B031
:103A780000AF78601023FB60FB6819460A4806F01F
:103A880019FD2023FB60FB681946074806F012FD64
:103A9800064BD3F89C30054A23F48003C2F89C30C7
:103AA80000BF2037BD4680BD001C0242000C024604
:103AB80080B588B004AF7B600346FB810B46BB81B1
:103AC80013467B817889BA89F98942F21073029387
:103AD8003B8B01937B6800930346074806F022FF5F
:103AE8000346002B01D1002301E06FF007031846BD
:103AF8001037BD4680BD00BF0C2B002080B588B0B4
:103B080004AF7B600346FB810B46BB8113467B8178
:103B18007889BA89F98942F2107302933B8B019331
:103B28007B6800930346074807F010F80346002B0C
:103B380001D1002301E06FF0070318461037BD4696
:103B480080BD00BF0C2B002080B584B000AF78602A
:103B580039600023FB607B68012B03D96FF00103F8
:103B6800FB6036E07B68002B04D13B6803F004035C
:103B7800002B07D17B68012B08D13B6803F00303B6
:103B8800002B03D06FF00A03FB6022E07B68002B58
:103B980009D1386800F034FB0346002B0CD06FF0D5
:103BA8000403FB6008E0386800F0A0FB0346002B24
:103BB80002D06FF00403FB60FB68002B09D1074AB1
:103BC8007B6852F823203B681A4304497B6841F814
:103BD8002320FB6818461037BD4680BD602B0020A7
:103BE80080B584B000AF786039600023FB607B68E3
:103BF800012B02D83B68002B03D16FF00103FB6057
:103C08001BE0104A7B6852F82330002B03D14FF099
:103C1800FF33FB6011E00C4A7B6852F82330DB6805
:103C28000A497A6851F822203968104698470346AD
:103C3800002B02DA6FF00403FB60FB6818461037AC
:103C4800BD4680BD602B0020702B0020682B002013
:103C580080B584B000AF786039600023FB607B6872
:103C6800012B02D83B68002B03D16FF00103FB60E6
:103C78001BE0104A7B6852F82330002B03D14FF029
:103C8800FF33FB6011E00C4A7B6852F823309B68D5
:103C98000A497A6851F8222039681046984703463D
:103CA800002B02DA6FF00403FB60FB68184610373C
:103CB800BD4680BD602B0020702B0020682B0020A3
:103CC80080B584B000AF786039600023FB607B6802
:103CD800012B03D96FF00103FB6041E07B68002BE7
:103CE80004D13B6803F00403002B07D17B68012B48
:103CF80008D13B6803F00303002B03D06FF00A03DD
:103D0800FB602DE0194A7B6852F823203B6813407A
:103D1800002B03D14FF0FF33FB6021E03B68012B00
:103D280006D03B68022B01D1012302E0022300E008
:103D38000023FB72F97A0E487A6813465B00134435
:103D48000B4450F823301B680A497A6851F822203E
:103D5800104698470346002B02DA6FF00403FB6015
:103D6800FB6818461037BD4680BD00BF602B002099
:103D7800782B0020682B002080B586B000AFF86053
:103D8800B9607A6000237B61FB68012B02D87B68ED
:103D9800002B03D16FF001037B6142E0FB68002B2D
:103DA80004D1BB6803F00403002B07D1FB68012B87
:103DB80008D1BB6803F00303002B03D06FF00A039C
:103DC8007B612EE0194AFB6852F82320BB68134038
:103DD800002B03D14FF0FF337B6122E0BB68012B3E
:103DE80006D0BB68022B01D1012302E0022300E0C8
:103DF8000023FB74F97C0E48FA6813465B001344F1
:103E08000B4450F82330DB690A49FA6851F822203C
:103E18007968104698470346002B02DA6FF00403CE
:103E28007B617B6918461837BD4680BD602B002032
:103E3800782B0020682B002080B586B000AFF86092
:103E4800B9607A6000237B61FB68012B02D87B682C
:103E5800002B03D16FF001037B6142E0FB68002B6C
:103E680004D1BB6803F00403002B07D1FB68012BC6
:103E780008D1BB6803F00303002B03D06FF00A03DB
:103E88007B612EE0194AFB6852F82320BB68134077
:103E9800002B03D14FF0FF337B6122E0BB68012B7D
:103EA80006D0BB68022B01D1012302E0022300E007
:103EB8000023FB74F97C0E48FA6813465B00134430
:103EC8000B4450F823309B680A49FA6851F82220BD
:103ED8007968104698470346002B02DA6FF004030E
:103EE8007B617B6918461837BD4680BD602B002072
:103EF800782B0020682B002080B586B000AFF860D2
:103F0800B9607A6000237B61FB68012B02D87B686B
:103F1800002B03D16FF001037B6142E0FB68002BAB
:103F280004D1BB6803F00403002B07D1FB68012B05
:103F380008D1BB6803F00303002B03D06FF00A031A
:103F48007B612EE0194AFB6852F82320BB681340B6
:103F5800002B03D14FF0FF337B6122E0BB68012BBC
:103F680006D0BB68022B01D1012302E0022300E046
:103F78000023FB74F97C0E48FA6813465B0013446F
:103F88000B4450F82330DB680A49FA6851F82220BC
:103F98007968104698470346002B02DA6FF004034D
:103FA8007B617B6918461837BD4680BD602B0020B1
:103FB800782B0020682B002080B586B000AFF86011
:103FC800B96087ED010A00237B61FB68012B03D9E7
:103FD8006FF001037B6143E0FB68002B04D1BB68F1
:103FE80003F00403002B07D1FB68012B08D1BB6841
:103FF80003F00303002B03D06FF00A037B612FE06B
:104008001A4AFB6852F82320BB681340002B03D1DF
:104018004FF0FF337B6123E0BB68012B06D0BB6800
:10402800022B01D1012302E0022300E00023FB74EC
:10403800F97C0F48FA6813465B0013440B4450F8A8
:1040480023301B690B49FA6851F8222097ED010AC1
:10405800104698470346002B02DA6FF004037B6191
:104068007B6918461837BD4680BD00BF602B00200D
:10407800782B0020682B002080B586B000AFF86050
:10408800B9607A6000237B61FB68012B02D87B68EA
:10409800002B03D16FF001037B6142E0FB68002B2A
:1040A80004D1BB6803F00403002B07D1FB68012B84
:1040B80008D1BB6803F00303002B03D06FF00A0399
:1040C8007B612EE0194AFB6852F82320BB68134035
:1040D800002B03D14FF0FF337B6122E0BB68012B3B
:1040E80006D0BB68022B01D1012302E0022300E0C5
:1040F8000023FB74F97C0E48FA6813465B001344EE
:104108000B4450F823305B690A49FA6851F82220B9
:104118007968104698470346002B02DA6FF00403CB
:104128007B617B6918461837BD4680BD602B00202F
:10413800782B0020682B002080B586B000AFF8608F
:10414800B9607A6000237B61FB68012B03D96FF0AB
:1041580001037B6149E0FB68002B04D1BB6803F0D5
:104168000403002B07D1FB68012B08D1BB6803F0BF
:104178000303002B03D06FF00A037B6135E01D4A6F
:10418800FB6852F82320BB681340002B03D14FF083
:10419800FF337B6129E0BB68012B06D0BB68022B8B
:1041A80001D1012302E0022300E00023FB74FB7C21
:1041B800022B03D16FF00A037B6116E0F97C0E48ED
:1041C800FA6813465B0013440B4450F823309B698C
:1041D8000A49FA6851F82220796810469847034638
:1041E800002B02DA6FF004037B617B6918461837ED
:1041F800BD4680BD602B0020782B0020682B002056
:1042080080B58CB000AF78600023FB6200237B612F
:10421800D7233B76294BFB60294B3B61294B3B62FB
:10422800294BFB61294B7B6207F10C03194628488F
:1042380000F0C8F80346002B03D06FF00703FB62B9
:1042480037E007F10B031946214800F0D9F9034676
:10425800002B03D06FF00403FB622AE0FB7A6B2B80
:1042680003D06FF00603FB6223E01A4B184A1A606A
:10427800194B1A4A1A60184B1B681B68154A1268B2
:10428800104698470346002B03DA6FF00403FB62DD
:104298000FE07B6803F00103002B02D0104B114A9A
:1042A8001A607B6803F00203002B02D00C4B0E4A05
:1042B8005A60FB6A18463037BD4680BDB5320008E3
:1042C8002933000851340008F5330008AD340008DC
:1042D800902B0020682B0020702B0020600000200D
:1042E800782B0020940000207000002080B58CB04E
:1042F80000AF78600023FB6200237B613D233B769F
:10430800254BFB60254B3B61254B3B62254BFB61F5
:10431800254B7B6207F10C031946244801F0A6FFE0
:104328000346002B03D06FF00703FB622FE007F171
:104338000B0319461D4802F054F80346002B03D01E
:104348006FF00403FB6222E0FB7A402B03D06FF08E
:104358000603FB621BE0164B144A5A60154B164ABB
:104368005A60144B5B681B68114A5268104698479C
:104378000346002B03DA6FF00403FB6207E07B6857
:1043880003F00403002B02D00C4B0D4A5A61FB6A60
:1043980018463037BD4680BDB532000829330008BD
:1043A80051340008F5330008AD340008C82B00204C
:1043B800682B0020702B0020B8000020782B0020EC
:1043C800C800002080B584B000AF78603960002351
:1043D800FB607B68002B03D14FF0FF33FB6051E09B
:1043E8003B681A687B681A603B685A687B685A6041
:1043F8003B689A687B689A603B681A7B7B681A738B
:104408003B681A697B681A613B685A697B685A611C
:104418003B689A697B689A617B681D4A5A627B6827
:104428001C4A1A623B68DA697B689A627B687A6818
:10443800DA627B681B68002B03D14FF0FF33FB6007
:1044480020E07B681B6898470346002B03D04FF099
:10445800FF33FB6016E07B689B68022B12D17B68F8
:1044680093F83030002B0DD10C23FB72FB7A1A46DF
:104478001221786800F073FD0346002B02D04FF03C
:10448800FF33FB60FB6818461037BD4680BD00BF90
:10449800D55300080B54000880B582B000AF78608F
:1044A8007B6820330121184601F02AFD0346002BC2
:1044B80002D04FF0FF3378E07B68203301211846A3
:1044C80001F0A1FD0346002B02D04FF0FF336CE052
:1044D8007B6820330121184601F06FFD0346002B4D
:1044E80002D04FF0FF3360E07B682033012118468B
:1044F80001F089FD0346002B02D04FF0FF3354E052
:104508007B6820330121184601F03EFC0346002B4E
:1045180002D04FF0FF3348E07B6820330021184673
:1045280001F097FD0346002B02D04FF0FF333CE02B
:104538007B68042283F833207B68203300211846E7
:1045480001F008F80346002B02D04FF0FF332CE0AF
:104558007B6820330021184600F09EFF0346002B9D
:1045680002D04FF0FF3320E07B68042283F8342028
:104578007B6820330021184601F038FA0346002BE7
:1045880002D04FF0FF3310E07B6820330C2118462F
:1045980001F0B4F90346002B02D04FF0FF3304E0DA
:1045A8007B68012283F83020002318460837BD466F
:1045B80080BD80B582B000AF7860786800F088F878
:1045C8000346002B02D04FF0FF3315E0786800F067
:1045D80092FA0346002B02D04FF0FF330CE07B68C1
:1045E800002283F833207B68002283F834207B681C
:1045F800002283F83020002318460837BD4680BDC6
:1046080080B582B000AF786039607B682033396844
:10461800184601F0C1FC0346002B02D04FF0FF33CF
:1046280000E0002318460837BD4680BD80B483B03B
:1046380000AF786039603B6801221A703B6801223C
:104648005A703B6800229A703B680022DA703B6817
:104658004FF47A625A603B6810229A603B680022E5
:10466800DA603B68074A1A613B68064A5A613B6848
:104678004FF000029A61002318460C37BD465DF8DA
:10468800047B70470058D04580B582B000AF786091
:104698007B6893F83130012B01D1002314E07B684B
:1046A80003F120027B6893F833301946104600F076
:1046B80051FF0346002B02D04FF0FF3304E07B6824
:1046C800012283F83120002318460837BD4680BDF3
:1046D80080B582B000AF78607B6893F83130002BEA
:1046E80001D100231FE07B6803F120027B6833338C
:1046F8001946104601F09AF80346002B02D04FF0F5
:10470800FF3310E07B6820330021184600F022FFB9
:104718000346002B02D04FF0FF3304E07B680022F1
:1047280083F83120002318460837BD4680BD0000B5
:1047380080B584B000AF786039600023FB607B6887
:10474800203307F10B021146184600F0CBFE034652
:10475800002B02D04FF0FF3323E0FB7A032B1BD84A
:1047680001A252F823F000BF8147000899470008CA
:1047780089470008914700083B680C4A1A600FE017
:104788003B680B4A1A600BE03B680A4A1A6007E06C
:104798003B68094A1A6003E04FF0FF33FB6000BF33
:1047A800FB6818461037BD4680BD00BF23DB793D46
:1047B80023DBF93D23DB793E23DBF93E80B584B06A
:1047C80000AF786039600023FB607B68203307F115
:1047D8000B021146184601F029F80346002B02D0B7
:1047E8004FF0FF334EE0FB7A0A2B46D801A252F86D
:1047F80023F000BF29480008334800083B48000858
:10480800434800084B480008534800085B48000824
:10481800634800086B480008734800087B48000894
:104828003B684FF000021A602BE03B68174A1A6099
:1048380027E03B68164A1A6023E03B68154A1A606D
:104848001FE03B68144A1A601BE03B68134A1A6071
:1048580017E03B68124A1A6013E03B68114A1A6075
:104868000FE03B68104A1A600BE03B680F4A1A6079
:1048780007E03B680E4A1A6003E04FF0FF33FB6025
:1048880000BFFB6818461037BD4680BD0000484190
:104898000000D041000050420000D04200005043C8
:1048A8000000D043004050440040D04400405045F0
:1048B8000058D04580B582B000AF786087ED000A17
:1048C8007B6893F83130012B06D197ED000A7868A0
:1048D80000F060FB034605E097ED000A786800F0F9
:1048E800E5FB034618460837BD4680BD80B584B051
:1048F80000AF786039600023FB607B68203307F1E4
:104908000B021146184600F0EDFD0346002B02D0BD
:104918004FF0FF3323E0FB7A032B1BD801A252F898
:1049280023F000BF3D4900085549000845490008E3
:104938004D4900083B6802221A600FE03B680422D8
:104948001A600BE03B6808221A6007E03B681022F7
:104958001A6003E04FF0FF33FB6000BFFB681846A6
:104968001037BD4680BD00BF80B584B000AF786009
:1049780039603B68022B0BDD3B68042B06DD3B6886
:10498800082B01DC032304E0012302E0022300E0FA
:104998000023FB737B682033FA7B1146184600F02E
:1049A8007BFD0346002B02D04FF0FF3300E00023CD
:1049B80018461037BD4680BD80B584B000AF78601A
:1049C80039607B68203307F108021146184601F068
:1049D8004CFA0346002B02D04FF0FF330CE0B7F936
:1049E80008203B681A80B7F90A203B685A80B7F953
:1049F8000C203B689A80002318461037BD4680BDBE
:104A080080B586B000AF786039604FF00003FB6076
:104A18007B68203307F110021146184601F025FA89
:104A28000346002B02D04FF0FF333CE007F10C03A4
:104A380019467868FFF77CFE0346002B02D04FF03A
:104A4800FF3330E0B7F9103007EE903AB8EEE77A66
:104A5800D7ED037A67EE277AFDEEE77A17EE902A0C
:104A68003B681A60B7F9123007EE903AB8EEE77A69
:104A7800D7ED037A67EE277AFDEEE77A17EE902AEC
:104A88003B685A60B7F9143007EE903AB8EEE77A07
:104A9800D7ED037A67EE277AFDEEE77A17EE902ACC
:104AA8003B689A60002318461837BD4680BD80B51C
:104AB80082B000AF78607B6893F83230012B01D167
:104AC800002314E07B6803F120027B6893F83430FC
:104AD8001946104600F08AFF0346002B02D04FF01B
:104AE800FF3304E07B68012283F832200023184654
:104AF8000837BD4680BD80B582B000AF78607B685E
:104B080093F83230002B01D100231FE07B6803F1BA
:104B180020027B6834331946104601F0D3F8034667
:104B2800002B02D04FF0FF3310E07B6820330021C8
:104B3800184600F05BFF0346002B02D04FF0FF330E
:104B480004E07B68002283F83220002318460837E7
:104B5800BD4680BD80B584B000AF78603960002361
:104B6800FB607B68203307F10B021146184600F002
:104B7800EBFE0346002B02D04FF0FF333DE0FB7AFB
:104B88000C2B35D801A252F823F000BFD14B0008F6
:104B9800F14B0008C94B0008F94B0008D94B000835
:104BA800F94B0008F94B0008F94B0008E14B0008E5
:104BB800F94B0008F94B0008F94B0008E94B0008CD
:104BC8003B68104A1A6017E03B680F4A1A6013E006
:104BD8003B680E4A1A600FE03B680D4A1A600BE00A
:104BE8003B680C4A1A6007E03B680B4A1A6003E00E
:104BF8004FF0FF33FB6000BFFB6818461037BD4617
:104C080080BD00BF00008C4000000C4100008C41BA
:104C180000000C4200008C4200000C4380B584B0B8
:104C280000AF786039600023FB607B68203307F1B0
:104C38000B021146184601F045F80346002B02D036
:104C48004FF0FF334EE0FB7A0A2B46D801A252F808
:104C580023F000BF894C0008934C00089B4C0008C7
:104C6800A34C0008AB4C0008B34C0008BB4C000830
:104C7800C34C0008CB4C0008D34C0008DB4C0008A0
:104C88003B684FF000021A602BE03B68174A1A6035
:104C980027E03B68164A1A6023E03B68154A1A6009
:104CA8001FE03B68144A1A601BE03B68134A1A600D
:104CB80017E03B68124A1A6013E03B68114A1A6011
:104CC8000FE03B68104A1A600BE03B680F4A1A6015
:104CD80007E03B680E4A1A6003E04FF0FF33FB60C1
:104CE80000BFFB6818461037BD4680BD000048412C
:104CF8000000D041000050420000D0420000504364
:104D08000000D043004050440040D044004050458B
:104D18000058D04580B582B000AF786087ED000AB2
:104D28007B6893F83230012B06D197ED000A78683A
:104D380000F03EFA034605E097ED000A786800F0B7
:104D4800C3FA034618460837BD4680BD80B584B00F
:104D580000AF786039600023FB607B68203307F17F
:104D68000B021146184600F0EFFD0346002B02D057
:104D78004FF0FF3341E0FB7A0C2B39D801A252F8EF
:104D880023F000BFC94D0008EF4D0008C14D0008D1
:104D9800F94D0008D14D0008F94D0008F94D0008FB
:104DA800F94D0008DB4D0008F94D0008F94D0008E1
:104DB800F94D0008E54D00083B687D221A601BE0AC
:104DC8003B68FA221A6017E03B684FF4FA721A60DF
:104DD80012E03B684FF47A721A600DE03B684FF4BA
:104DE800FA621A6008E03B684FF47A621A6003E0DE
:104DF8004FF0FF33FB6000BFFB6818461037BD4615
:104E080080BD00BF80B584B000AF786039603B6872
:104E18007D2B18DD3B68FA2B13DD3B68B3F5FA7F71
:104E28000DDD3B68B3F57A7F07DD3B68B3F5FA6FB4
:104E380001DC0C2308E0012306E0082304E0042336
:104E480002E0002300E00223FB737B682033FA7B37
:104E58001146184600F052FD0346002B02D04FF0D1
:104E6800FF3300E0002318461037BD4680BD80B5EB
:104E780084B000AF786039607B68203307F108029E
:104E88001146184600F0A6FF0346002B02D04FF04B
:104E9800FF330CE0B7F908203B681A80B7F90A20FD
:104EA8003B685A80B7F90C203B689A800023184663
:104EB8001037BD4680BD80B586B000AF78603960D8
:104EC8007B68203307F110021146184600F082FF74
:104ED8000346002B02D04FF0FF333CE007F10C03F0
:104EE80019467868FFF736FE0346002B02D04FF0CC
:104EF800FF3330E0B7F9103007EE903AB8EEE77AB2
:104F0800D7ED037A67EE277AFDEEE77A17EE902A57
:104F18003B681A60B7F9123007EE903AB8EEE77AB4
:104F2800D7ED037A67EE277AFDEEE77A17EE902A37
:104F38003B685A60B7F9143007EE903AB8EEE77A52
:104F4800D7ED037A67EE277AFDEEE77A17EE902A17
:104F58003B689A60002318461837BD4680BD80B567
:104F680082B000AF78600B46FB701346BB707B685D
:104F780003F12000BA1CF978012300F075FA034602
:104F8800002B02D04FF0FF3300E00023184608370B
:104F9800BD4680BD80B584B000AF786087ED000A5B
:104FA800D7ED007AB2EE097AF4EEC77AF1EE10FA8C
:104FB80001D8012358E0D7ED007AB3EE0A7AF4EE6F
:104FC800C77AF1EE10FA01D802234DE0D7ED007A46
:104FD8009FED2F7AF4EEC77AF1EE10FA01D8032389
:104FE80042E0D7ED007A9FED2B7AF4EEC77AF1EE26
:104FF80010FA01D8042337E0D7ED007A9FED267A1E
:10500800F4EEC77AF1EE10FA01D805232CE0D7EDBB
:10501800007A9FED227AF4EEC77AF1EE10FA01D801
:10502800062321E0D7ED007A9FED1D7AF4EEC77ACA
:10503800F1EE10FA01D8072316E0D7ED007A9FEDBC
:10504800197AF4EEC77AF1EE10FA01D808230BE0CA
:10505800D7ED007A9FED147AF4EEC77AF1EE10FAE4
:1050680001D8092300E00A23FB737B682033FA7B0D
:105078001146184600F06EFA0346002B02D04FF096
:10508800FF3300E0002318461037BD4680BD00BF3F
:10509800000050420000D042000050430000D043BE
:1050A800004050440040D0440040504580B483B094
:1050B80000AF786087ED000AD7ED007AB2EE097A82
:1050C800F4EEC77AF1EE10FA01D8012358E0D7EDD3
:1050D800007AB3EE0A7AF4EEC77AF1EE10FA01D844
:1050E80002234DE0D7ED007A9FED2A7AF4EEC77AD5
:1050F800F1EE10FA01D8032342E0D7ED007A9FEDD4
:10510800267AF4EEC77AF1EE10FA01D8042337E0D4
:10511800D7ED007A9FED217AF4EEC77AF1EE10FA16
:1051280001D805232CE0D7ED007A9FED1D7AF4EE27
:10513800C77AF1EE10FA01D8062321E0D7ED007AFC
:105148009FED187AF4EEC77AF1EE10FA01D807232A
:1051580016E0D7ED007A9FED147AF4EEC77AF1EEF7
:1051680010FA01D808230BE0D7ED007A9FED0F7AEB
:10517800F4EEC77AF1EE10FA01D8092300E00A2309
:105188007A6882F83330002318460C37BD465DF83C
:10519800047B7047000050420000D042000050439A
:1051A8000000D043004050440040D04400405045E7
:1051B80080B584B000AF786087ED000AD7ED007A3B
:1051C800B2EE097AF4EEC77AF1EE10FA01D80123AB
:1051D80058E0D7ED007AB3EE0A7AF4EEC77AF1EE2A
:1051E80010FA01D802234DE0D7ED007A9FED2F7A0F
:1051F800F4EEC77AF1EE10FA01D8032342E0D7EDB6
:10520800007A9FED2B7AF4EEC77AF1EE10FA01D806
:10521800042337E0D7ED007A9FED267AF4EEC77ABB
:10522800F1EE10FA01D805232CE0D7ED007A9FEDB6
:10523800227AF4EEC77AF1EE10FA01D8062321E0BB
:10524800D7ED007A9FED1D7AF4EEC77AF1EE10FAE9
:1052580001D8072316E0D7ED007A9FED197AF4EE0E
:10526800C77AF1EE10FA01D808230BE0D7ED007ADF
:105278009FED147AF4EEC77AF1EE10FA01D80923FB
:1052880000E00A23FB737B682033FA7B114618463B
:1052980000F0ACFB0346002B02D04FF0FF3300E0D8
:1052A800002318461037BD4680BD00BF000050429D
:1052B8000000D042000050430000D043004050445A
:1052C8000040D0440040504580B483B000AF7860BF
:1052D80087ED000AD7ED007AB2EE097AF4EEC77AC4
:1052E800F1EE10FA01D8012358E0D7ED007AB3EEB9
:1052F8000A7AF4EEC77AF1EE10FA01D802234DE0EB
:10530800D7ED007A9FED2A7AF4EEC77AF1EE10FA1B
:1053180001D8032342E0D7ED007A9FED267AF4EE18
:10532800C77AF1EE10FA01D8042337E0D7ED007AF6
:105338009FED217AF4EEC77AF1EE10FA01D8052331
:105348002CE0D7ED007A9FED1D7AF4EEC77AF1EEE6
:1053580010FA01D8062321E0D7ED007A9FED187ADC
:10536800F4EEC77AF1EE10FA01D8072316E0D7ED6C
:10537800007A9FED147AF4EEC77AF1EE10FA01D8AC
:1053880008230BE0D7ED007A9FED0F7AF4EEC77A89
:10539800F1EE10FA01D8092300E00A237A6882F8AE
:1053A8003430002318460C37BD465DF8047B70473F
:1053B800000050420000D042000050430000D0439B
:1053C800004050440040D0440040504590B587B05C
:1053D80000AFF8607A601A460B46FB7213463B81B1
:1053E800FB687B617B695C697B691B7B98B2FB7A94
:1053F80099B23B897A68A047034618461C37BD46D0
:1054080090BD90B587B000AFF8607A601A460B4639
:10541800FB7213463B81FB687B617B691C697B6976
:105428001B7B98B2FB7A99B23B897A68A0470346FE
:1054380018461C37BD4690BD90B587B000AFF860E0
:105448007A601A460B46FB7213463B81FB685C6820
:10545800FB68D8683B89F97A7A68A04778617B69E4
:1054680018461C37BD4690BD90B587B000AFF860B0
:105478007A601A460B46FB7213463B81FB681C6830
:10548800FB68D8683B89F97A7A68A04778617B69B4
:1054980018461C37BD4690BD80B584B000AF786013
:1054A8000B46FB7007F10802012310217868FFF70B
:1054B800C3FFF860FB68002B0FD1FB7803F00303F0
:1054C800DAB23B7A62F383033B7207F108020123E5
:1054D80010217868FFF7C8FFF860FB681846103796
:1054E800BD4680BD80B584B000AF7860396007F1F3
:1054F8000802012310217868FFF79EFFF8603B7AC5
:10550800C3F38103DBB2032B1AD801A252F823F0AC
:10551800295500083155000839550008415500083B
:105528003B6800221A700FE03B6801221A700BE0FA
:105538003B6802221A7007E03B6803221A7003E0F6
:105548003B6800221A7000BFFB6818461037BD463A
:1055580080BD00BF80B586B000AF78600B46FB7099
:10556800FB78FB7507F10C031946786800F097FD86
:1055780038613B69002B40F0C4803B7BC3F30003D8
:10558800DAB23B7BC3F34003DBB21343DAB23B7BB3
:10559800C3F38003DBB21343DAB23B7BC3F3C0032C
:1055A800DBB21343DAB23B7BC3F30013DBB2134322
:1055B800DAB23B7BC3F34013DBB21343DAB23B7B73
:1055C800C3F38013DBB21343DAB23B7BC3F3C013DC
:1055D800DBB21343DAB27B7BC3F30003DBB21343C2
:1055E800DAB27B7BC3F34003DBB21343DAB27B7BD3
:1055F800C3F38003DBB21343DAB27B7BC3F3C0038C
:10560800DBB21343DAB27B7BC3F30013DBB2134381
:10561800DAB27B7BC3F34013DBB21343DAB27B7B92
:10562800C3F38013DBB21343DAB27B7BC3F3C0133B
:10563800DBB21343DBB2012B63D107F10B0319462D
:10564800786800F059FD38613B69002B59D1FB7A25
:10565800032B53D801A252F823F000BF7556000857
:1056680087560008A5560008CF560008FB78002B7F
:1056780002D10123FB7544E0FB78FB7541E0FB7820
:10568800002B02D10223FB753BE0FB78012B02D1F2
:105698000223FB7535E0FB78FB7532E0FB78002BC5
:1056A80002D10323FB752CE0FB78012B02D10323E5
:1056B800FB7526E0FB78022B02D10323FB7520E063
:1056C800FB78FB751DE0FB78002B02D10423FB75EA
:1056D80017E0FB78012B02D10423FB7511E0FB785E
:1056E800022B02D10423FB750BE0FB78032B02D1BC
:1056F8000423FB7505E0FB78FB7502E0FB78FB757E
:1057080000BF0023BB723B69002B6CD107F10A0371
:105718001946786800F038FD3861BB7A012B62D1F0
:1057280007F109031946786800F058FD38613B69AC
:10573800002B58D17B7A032B52D801A252F823F0C0
:10574800595700086B57000889570008B3570008D5
:10575800FB78002B02D10123FB7544E0FB78FB7535
:1057680041E0FB78002B02D10223FB753BE0FB787C
:10577800012B02D10223FB7535E0FB78FB7532E083
:10578800FB78002B02D10323FB752CE0FB78012B5F
:1057980002D10323FB7526E0FB78022B02D10323F9
:1057A800FB7520E0FB78FB751DE0FB78002B02D130
:1057B8000423FB7517E0FB78012B02D10423FB754A
:1057C80011E0FB78022B02D10423FB750BE0FB7878
:1057D800032B02D10423FB7505E0FB78FB7502E07F
:1057E800FB78FB7500BF3B69002B07D107F1080266
:1057F800012310217868FFF71FFE38613B69002BF1
:105808000FD1FB7D03F00F03DAB23B7A62F3071383
:105818003B7207F10802012310217868FFF724FE84
:1058280038613B6918461837BD4680BD80B584B0DD
:1058380000AF7860396007F1080201231021786809
:10584800FFF7FAFDF8603B7AC3F30313DBB20B2BC7
:105858004AD801A252F823F0915800089958000834
:10586800A1580008A9580008B1580008B9580008FC
:10587800C1580008C9580008D1580008D95800086C
:10588800E1580008E95800083B6800221A702FE028
:105898003B6801221A702BE03B6802221A7027E04D
:1058A8003B6803221A7023E03B6804221A701FE049
:1058B8003B6805221A701BE03B6806221A7017E045
:1058C8003B6807221A7013E03B6808221A700FE041
:1058D8003B6809221A700BE03B680A221A7007E03D
:1058E8003B680B221A7003E03B6800221A7000BF65
:1058F800FB6818461037BD4680BD00BF80B584B030
:1059080000AF78600B46FB7007F1080201231121F4
:105918007868FFF791FDF860FB68002B0FD1FB78E2
:1059280003F00F03DAB23B7A62F303033B7207F129
:105938000802012311217868FFF796FDF860FB68DB
:1059480018461037BD4680BD80B584B000AF78607A
:10595800396007F10802012311217868FFF76CFD0F
:10596800F8603B7AC3F30303DBB20C2B34D801A2F3
:1059780052F823F0B9590008D9590008B15900085C
:10598800E1590008C1590008E1590008E159000827
:10599800E1590008C9590008E1590008E15900080F
:1059A800E1590008D15900083B6802221A7017E033
:1059B8003B6800221A7013E03B6804221A700FE05B
:1059C8003B6808221A700BE03B680C221A7007E04B
:1059D8003B6801221A7003E03B6802221A7000BF7C
:1059E800FB6818461037BD4680BD00BF80B586B03D
:1059F80000AF78600B46FB70FB78FB7507F10C0372
:105A08001946786800F04BFB38613B69002B40F081
:105A1800C4803B7BC3F30003DAB23B7BC3F3400390
:105A2800DBB21343DAB23B7BC3F38003DBB213432D
:105A3800DAB23B7BC3F3C003DBB21343DAB23B7B7E
:105A4800C3F30013DBB21343DAB23B7BC3F3401357
:105A5800DBB21343DAB23B7BC3F38013DBB21343ED
:105A6800DAB23B7BC3F3C013DBB21343DAB27B7BFE
:105A7800C3F30003DBB21343DAB27B7BC3F3400307
:105A8800DBB21343DAB27B7BC3F38003DBB213438D
:105A9800DAB27B7BC3F3C003DBB21343DAB27B7B9E
:105AA800C3F30013DBB21343DAB27B7BC3F34013B7
:105AB800DBB21343DAB27B7BC3F38013DBB213434D
:105AC800DAB27B7BC3F3C013DBB21343DBB2012B27
