:020000040810E2
:1000000000000C2079021008C9021008C90210086B
:10001000A1041008C9021008A7041008C90210089A
:10002000000000000000000000000000AD04100807
:10003000C902100800000000BB041008C904100821
:10004000C9021008C9021008C9021008C902100824
:10005000C9021008C9021008C9021008C902100814
:10006000C9021008C9021008C9021008C902100804
:10007000C9021008C9021008C9021008C9021008F4
:10008000C9021008C9021008C9021008C9021008E4
:10009000C9021008C9021008C9021008C9021008D4
:1000A000C9021008C9021008C9021008C9021008C4
:1000B000C9021008C9021008C9021008C9021008B4
:1000C000C9021008C9021008C9021008C9021008A4
:1000D000C9021008C9021008C9021008C902100894
:1000E000C9021008C9021008C9021008C902100884
:1000F000C9021008C9021008C9021008C902100874
:10010000C9021008C9021008C9021008C902100863
:10011000C9021008C9021008C9021008C902100853
:10012000C9021008C9021008C9021008C902100843
:10013000C9021008C9021008C9021008C902100833
:10014000C9021008C9021008C9021008C902100823
:10015000C9021008C9021008C9021008C902100813
:10016000C9021008C9021008C9021008C902100803
:10017000C9021008C9021008C9021008C9021008F3
:10018000C9021008C9021008C9021008C9021008E3
:10019000C9021008C9021008C9021008C9021008D3
:1001A000C9021008C9021008C9021008C9021008C3
:1001B000C9021008C9021008C9021008C9021008B3
:1001C000C9021008C9021008C9021008C9021008A3
:1001D000C9021008C9021008C9021008C902100893
:1001E000C9021008C9021008C9021008C902100883
:1001F000C9021008C9021008C9021008C902100873
:10020000C9021008C9021008C9021008C902100862
:10021000C9021008C9021008C9021008C902100852
:10022000C9021008C9021008C9021008C902100842
:08023000C9021008C902100800
:1002380010B5054C237833B9044B13B10448AFF318
:1002480000800123237010BD10000420000000006E
:100258001C22100808B5034B1BB103490348AFF330
:10026800008008BD00000000140004201C221008B3
:10027800DFF834D000F02CF9002103E00B4B5B5879
:10028800435004310A480B4B42189A42F6D30A4AA3
:1002980002E0002342F8043B084B9A42F9D301F0EC
:1002A80095FF00F00FF8FEE700000C201823100857
:1002B800000004200D000420100004203400042055
:1002C800FEE7000080B500AF00F00AF907490020FA
:1002D80001F0AEFF0649012001F0AAFF00F00CF87A
:1002E80000F054F8034B01221A60FEE731041008AD
:1002F8003D0410082C00042080B59EB000AF07F123
:10030800180360220021184601F058FF3B460022DE
:100318001A605A609A60DA601A615A61002000F027
:1003280051FC0346002B01D000F08AF81023BB6172
:1003380001237B631023BB634FF08043FB630023DF
:100348003B6507F11803184600F0C8FC0346002B6C
:1003580001D000F075F81F233B6000237B60002369
:10036800BB600023FB6000233B6100237B613B46AD
:100378000021184601F08EFB0346002B01D000F047
:100388005FF800BF7837BD4680BD000080B586B0F5
:1003980000AF3B1D00221A605A609A60DA601A6149
:1003A800124BD3F88C30114A43F08003C2F88C30DA
:1003B8000E4BD3F88C3003F080033B603B6800227F
:1003C80080210B4800F0CCFB80237B600123BB60BD
:1003D8000023FB6003233B613B1D1946044800F0E2
:1003E800E7F900BF1837BD4680BD00BF000C0246C4
:1003F800001C024280B500AF094B1B68002B05D0DA
:10040800074B1B68013B064A136007E0802105483B
:1004180000F0BEFB024B4FF4FA721A6000BF80BDB9
:1004280000000420001C024280B500AF00F008F86C
:1004380000BF80BD80B500AF00F002F800BF80BDEE
:1004480080B500AF054B1B68002B01D0FFF79EFF5E
:1004580001228021024800F083FBFEE72C000420E3
:10046800001C024280B483B000AF0A4BD3F894302A
:10047800084A43F00403C2F89430064BD3F894308A
:1004880003F004037B607B6800BF0C37BD465DF852
:10049800047B7047000C024680B400AFFEE780B4CE
:1004A80000AFFEE780B400AF00BFBD465DF8047B37
:1004B800704780B400AF00BFBD465DF8047B70474D
:1004C80080B500AF00F070F8FFF794FF00BF80BD63
:1004D80080B400AF00BFBD465DF8047B70470000E4
:1004E80080B500AF114B1B68104A43F4807313604A
:1004F800032000F02BF901F0BFFC02460C4B1B6AED
:1005080003F00F030B49CB5C22FA03F30A4A13608A
:100518000F2000F013F80346002B01D0012302E05E
:10052800FFF7A0FF0023184680BD00BF002002404F
:10053800000C0246402210080400042080B582B056
:1005480000AF7860154B1B78002B01D1012321E007
:10055800134B1A68114B1B7819464FF47A73B3FB87
:10056800F1F3B2FBF3F3184600F015F90346002B3C
:1005780001D001230EE07B680F2B0AD8002279688E
:100588004FF0FF3000F0EDF8064A7B681360002357
:1005980000E0012318460837BD4680BD0C00042042
:1005A800040004200800042080B400AF064B1B7828
:1005B8001A46064B1B681344044A136000BFBD4625
:1005C8005DF8047B704700BF0C0004203000042055
:1005D80080B400AF034B1B681846BD465DF8047B2A
:1005E800704700BF3000042080B485B000AF786049
:1005F8007B6803F00703FB600C4BDB68BB60BA68E1
:100608004FF6FF031340BB60FB681A02BB68134335
:1006180043F0BF6343F40033BB60044ABB68D36054
:1006280000BF1437BD465DF8047B704700ED00E05D
:1006380080B400AF044BDB681B0A03F007031846BD
:10064800BD465DF8047B704700ED00E080B483B0E0
:1006580000AF03463960FB7197F90730002B0ADBBE
:100668003B68DAB20C4997F907301201D2B20B4451
:1006780083F800230AE03B68DAB20849FB7903F003
:100688000F03043B1201D2B20B441A7600BF0C3799
:10069800BD465DF8047B704700E100E000ED00E036
:1006A80080B489B000AFF860B9607A60FB6803F085
:1006B8000703FB61FB69C3F10703042B28BF04236D
:1006C800BB61FB690433062B02D9FB69033B00E0DD
:1006D80000237B614FF0FF32BB6902FA03F3DA4370
:1006E800BB681A407B699A404FF0FF317B6901FA79
:1006F80003F3D9437B680B40134318462437BD46A0
:100708005DF8047B7047000080B582B000AF786068
:100718007B68013BB3F1807F01D301230FE00A4AD4
:100728007B68013B53600F214FF0FF30FFF78EFFCE
:10073800054B00229A60044B07221A6000231846D2
:100748000837BD4680BD00BF10E000E080B582B02C
:1007580000AF78607868FFF747FF00BF0837BD46ED
:1007680080BD80B586B000AF0346B9607A60FB7380
:10077800FFF75EFF78617A68B9687869FFF790FFDC
:10078800024697F90F3011461846FFF75FFF00BF82
:100798001837BD4680BD80B582B000AF78607868F4
:1007A800FFF7B2FF034618460837BD4680BD000074
:1007B80080B489B000AF7860396000237B617B68C2
:1007C8003B61BAE13B681A6801217B6901FA03F3CE
:1007D8001340FB607B69BB61FB68002B00F0AA81BA
:1007E8007B68554A93425DD17B681B68FB61012297
:1007F8007B6902FA03F3DB43FA691340FB613B6848
:100808005B6803F001027B6902FA03F3FA69134398
:10081800FB617B68FA691A60484A7B6952F8333091
:100828003B61464A7B69DB0013445B68BB61BB697B
:10083800DA083B69083253F82230FB61BB6903F0E0
:1008480007039B000F2202FA03F3DB43FA69134004
:10085800FB61BB6903F007039B000B2202FA03F359
:10086800FA691343FB61BB69DA083B690832F96925
:1008780043F822103B691B68FB61BB695B000322DC
:1008880002FA03F3DB43FA691340FB61BB695B00BF
:10089800022202FA03F3FA691343FB613B69FA691E
:1008A8001A6067E03B685B68022B03D03B685B68B3
:1008B800122B45D17B69DA087B68083253F822305D
:1008C800FB617B6903F007039B000F2202FA03F325
:1008D800DB43FA691340FB613B681B6903F00F02B5
:1008E8007B6903F007039B0002FA03F3FA691343D9
:1008F800FB617B69DA087B680832F96943F82210E2
:100908003B691B68FB61BB695B00032202FA03F3C6
:10091800DB43FA691340FB613B685B6803F0030241
:10092800BB695B0002FA03F3FA691343FB613B6995
:10093800FA691A601EE000BF000002469022100803
:100948003B691B68FB61BB695B00032202FA03F386
:10095800DB43FA691340FB613B685B6803F0030201
:10096800BB695B0002FA03F3FA691343FB613B6955
:10097800FA691A603B685B68012B0BD03B685B68BF
:10098800022B07D03B685B68112B03D03B685B6880
:10099800122B30D13B699B68FB61BB695B0003226A
:1009A80002FA03F3DB43FA691340FB613B68DA6838
:1009B800BB695B0002FA03F3FA691343FB613B6905
:1009C800FA699A603B695B68FB610122BB6902FABC
:1009D80003F3DB43FA691340FB613B685B681B095F
:1009E80003F00102BB6902FA03F3FA691343FB61DE
:1009F8003B69FA695A603B685B68032B17D03B690F
:100A0800DB68FB61BB695B00032202FA03F3DB438B
:100A1800FA691340FB613B689A68BB695B0002FA9C
:100A280003F3FA691343FB613B69FA69DA603B68CF
:100A38005B6803F08053002B7CD0474A7B699B0896
:100A4800183352F82330FB617B6903F00303DB00A2
:100A58000F2202FA03F3DB43FA691340FB617B6858
:100A68009A0A3E4B13407A6902F00302D20093407F
:100A7800FA691343FB6138497B699B081833FA69A3
:100A880041F82320344B1B68FB61FB68DB43FA69A0
:100A98001340FB613B685B6803F48013002B03D0B1
:100AA800FA69FB681343FB612B4AFB6913602A4B05
:100AB8005B68FB61FB68DB43FA691340FB613B68D9
:100AC8005B6803F40013002B03D0FA69FB68134337
:100AD800FB61214AFB6953601F4BD3F88430FB61EB
:100AE800FB68DB43FA691340FB613B685B6803F40E
:100AF8000033002B03D0FA69FB681343FB61164AE5
:100B0800FB69C2F88430144BD3F88030FB61FB6872
:100B1800DB43FA691340FB613B685B6803F480338D
:100B2800002B03D0FA69FB681343FB610A4AFB698F
:100B3800C2F880307B6901337B613B681A687B6946
:100B480022FA03F3002B7FF43DAE00BF00BF243729
:100B5800BD465DF8047B7047002002467F7F2F006A
:100B680080B483B000AF78600B467B8013467B70FF
:100B78007B78002B03D07A887B689A6102E07A88B8
:100B88007B689A6200BF0C37BD465DF8047B7047EE
:100B980080B485B000AF78600B467B807B685B696A
:100BA800FB607A88FB6813401A04FB68D9437B888A
:100BB8000B401A437B689A6100BF1437BD465DF845
:100BC800047B704780B485B000AF7860394BDB6B2D
:100BD80003F44033BB60BA687B689A420BD17B68E8
:100BE800B3F5803F05D9334BDB68324A43F48023A1
:100BF800D360002357E07B68B3F5803F0AD92D4BBB
:100C0800DB6823F4E0227B6813432A4A43F48023F9
:100C1800D36007E0274BDB6823F4E02225497B6893
:100C28001343CB60244B1B68244AA2FB03239B0974
:100C3800322202FB03F3214AA2FB03239B0901335F
:100C4800FB6002E0FB68013BFB601A4BDB6803F4C6
:100C58000043002B02D1FB68002BF3D1FB68002B6B
:100C68001BD0154B1B68154AA2FB03239B09322294
:100C780002FB03F3114AA2FB03239B090133FB6028
:100C880002E0FB68013BFB600A4BDB6B03F40043AB
:100C9800002B02D1FB68002BF3D1FB68002B01D19C
:100CA800032300E0002318461437BD465DF8047B93
:100CB800704700BF0008024604000420D34D6210AC
:100CC80080B400AF044BDB6B03F440331846BD46D9
:100CD8005DF8047B704700BF0008024680B58EB0FF
:100CE80000AF7860002387F837307B68002B02D18B
:100CF800012300F0C8BE994BDB6903F00C033B638A
:100D0800964B9B6A03F00303FB627B681B6803F046
:100D18001003002B00F06C813B6B002B07D03B6B62
:100D28000C2B40F0DE80FB6A012B40F0DA807B68F8
:100D3800DB69002B02D1012300F0A5BE7B685A6A4B
:100D4800864B9B6803F40003002B04D0834B9B68FD
:100D580003F0704305E0814BD3F8F4301B0403F033
:100D68007043934255D23B6B002B0AD17B685B6A78
:100D7800184601F09DF90346002B02D0012300F02C
:100D880082BE764B9B68754A43F400039360734BAD
:100D98009B6823F070427B685B6A704913438B60E1
:100DA8007B685B6AB3F1404F09D36C4BDB6823F077
:100DB8001F027B681B6A69491343CB607EE07B682E
:100DC8005B6A002B0ADA654BDB6823F478727B6870
:100DD8001B6A5B0161491343CB606FE07B685B6A08
:100DE800B3F1804F0AD35D4BDB6823F4F8427B688C
:100DF8001B6A9B0259491343CB605FE0574BDB6882
:100E080023F478227B681B6ADB0354491343CB60C5
:100E180054E0524B9B68514A43F4000393604F4B94
:100E28009B6823F070427B685B6A4C4913438B6074
:100E38007B685B6AB3F1404F09D3484BDB6823F00A
:100E48001F027B681B6A45491343CB6028E07B6817
:100E58005B6A002B0ADA414BDB6823F478727B6803
:100E68001B6A5B013D491343CB6019E07B685B6AF1
:100E7800B3F1804F0AD3394BDB6823F4F8427B681F
:100E88001B6A9B0235491343CB6009E0334BDB688F
:100E980023F478227B681B6ADB0330491343CB6059
:100EA8003B6B002B0AD17B685B6A184601F000F99E
:100EB8000346002B02D0012300F0E5BD01F0DEF867
:100EC800274B1B681846FFF739FB034687F827307E
:100ED80097F82730002B00F08A8097F8273000F029
:100EE800D2BD7B68DB69002B66D01C4B1B681B4A94
:100EF80043F001031360FFF76BFBB86209E0FFF7EB
:100F080067FB0246BB6AD31A022B02D9032300F0FF
:100F1800BABD124B1B6803F00403002BEFD00F4B34
:100F28009B680E4A43F4000393600C4B9B6823F0C4
:100F380070427B685B6A094913438B607B685B6A14
:100F4800B3F1404F0ED3054BDB6823F01F027B68DB
:100F58001B6A02491343CB604AE000BF000C0246FB
:100F6800080004207B685B6A002B0ADA984BDB6870
:100F780023F478727B681B6A5B0195491343CB6045
:100F880036E07B685B6AB3F1804F0AD3904BDB682D
:100F980023F4F8427B681B6A9B028D491343CB609C
:100FA80026E08B4BDB6823F478227B681B6ADB0323
:100FB80087491343CB601BE0854B1B68844A23F0A9
:100FC80001031360FFF704FBB86209E0FFF700FBB9
:100FD8000246BB6AD31A022B02D9032300F053BD81
:100FE8007B4B1B6803F00403002BEFD100E000BF2C
:100FF8007B681B6803F00103002B00F08B803B6BC0
:10100800082B05D03B6B0C2B09D1FB6A032B06D1AF
:101018007B685B68002B7DD1012300F034BD7B68C1
:101028005B68B3F5803F06D1694B1B68684A43F497
:101038008033136041E07B685B68B3F5A02F12D161
:10104800634B1B68624A43F480231360604B1B6840
:101058005F4A23F4801313605D4B1B685C4A43F4BA
:101068008033136029E07B685B68B3F5A81F12D151
:10107800574B1B68564A43F480231360544B1B6834
:10108800534A43F480131360514B1B68504A43F48E
:101098008033136011E04E4B1B684D4A23F48033B4
:1010A80013604B4B1B684A4A23F480231360484B58
:1010B8001B68474A23F4801313607B685B68002B26
:1010C80014D0FFF785FAB86209E0FFF781FA024603
:1010D800BB6AD31A642B02D9032300F0D4BC3C4B5F
:1010E8001B6803F40033002BEFD013E0FFF770FA0E
:1010F800B86209E0FFF76CFA0246BB6AD31A642BA0
:1011080002D9032300F0BFBC314B1B6803F4003342
:10111800002BEFD17B681B6803F00203002B5FD024
:101128003B6B042B05D03B6B0C2B14D1FB6A022BB9
:1011380011D17B68DB68002B02D1012300F0A3BC2E
:10114800234B1B6923F4F8127B681B691B04204995
:1011580013430B6144E07B68DB68002B24D01C4BF5
:101168001B681B4A43F480731360FFF731FAB862B7
:1011780009E0FFF72DFA0246BB6AD31A022B02D9FF
:10118800032300F080BC124B1B6803F48063002B20
:10119800EFD00F4B1B6923F4F8127B681B691B0403
:1011A8000B4913430B611BE0094B1B68084A23F4E6
:1011B80080731360FFF70CFAB8620BE0FFF708FAC8
:1011C8000246BB6AD31A022B04D9032300F05BBC86
:1011D800000C0246AF4B1B6803F48063002BEDD173
:1011E8007B681B6803F00803002B00F0C88000230D
:1011F80087F83630A74BD3F8943003F00403002B5C
:1012080011D1A44BD3F89430A24A43F00403C2F896
:101218009430A04BD3F8943003F004037B617B69CE
:10122800012387F836309C4B9B6A03F00103002B9F
:1012380019D1994B9B6A984A43F001039362FFF7CF
:10124800C7F9B86209E0FFF7C3F90246BB6AD31AC7
:10125800022B02D9032300F016BC8F4B9B6A03F0C4
:101268000103002BEFD07B685B69002B5FD0894BB3
:10127800D3F8F0303B627B689A693B6A03F080538D
:101288009A4237D03B6A03F00063002B06D03B6AD2
:1012980003F08063002B01D10123F4E33B6A03F0E0
:1012A8008063002B1BD07B4BD3F8F030794A23F0B6
:1012B800A053C2F8F030FFF78BF9B86208E0FFF7E7
:1012C80087F90246BB6AD31A052B01D90323DAE34F
:1012D800704BD3F8F03003F00063002BEFD16D4B67
:1012E800D3F8F03023F080527B689B696949134337
:1012F800C1F8F030674BD3F8F030664A43F08063AA
:10130800C2F8F030FFF764F9B86208E0FFF760F957
:101318000246BB6AD31A052B01D90323B3E35D4BFD
:10132800D3F8F03003F00063002BEFD01BE0594BEB
:10133800D3F8F030574A23F0A053C2F8F030FFF743
:1013480047F9B86208E0FFF743F90246BB6AD31AC7
:10135800052B01D9032396E34E4BD3F8F03003F065
:101368000063002BEFD197F83630012B07D1494B9A
:10137800D3F89430474A23F00403C2F894307B68CA
:101388001B6803F00403002B00F01181002387F889
:101398003530404BD3F8943003F00403002B11D1BF
:1013A8003C4BD3F894303B4A43F00403C2F89430E2
:1013B800384BD3F8943003F004033B613B690123B5
:1013C80087F83530344B9B6A03F00103002B18D1A2
:1013D800314B9B6A304A43F001039362FFF7F8F8F8
:1013E800B86208E0FFF7F4F80246BB6AD31A022B8A
:1013F80001D9032347E3284B9B6A03F00103002B21
:10140800F0D07B689B6803F00103002B1FD07B683A
:101418009B6803F00403002B10D01E4BD3F8F03068
:101428001C4A43F00403C2F8F0301A4BD3F8F030EA
:10143800184A43F00103C2F8F03018E0154BD3F80E
:10144800F030144A43F00103C2F8F0300FE0114BBA
:10145800D3F8F0300F4A23F00103C2F8F0300D4BF7
:10146800D3F8F0300B4A23F00403C2F8F0307B685D
:101478009B68002B57D0FFF7ABF8B8620EE0FFF778
:10148800A7F80246BB6AD31A41F28832934205D9BB
:101498000323F8E2000C0246000802469C4BD3F8EE
:1014A800F03003F00203002BE9D07B689B6803F05F
:1014B8008003002B1BD0964BD3F8F030944A43F0AE
:1014C8008003C2F8F0300AE0FFF782F80246BB6AF0
:1014D800D31A41F28832934201D90323D3E28C4BC9
:1014E800D3F8F03003F40063002BEDD053E0884BC1
:1014F800D3F8F030864A23F08003C2F8F0300AE0CF
:10150800FFF766F80246BB6AD31A41F28832934263
:1015180001D90323B7E27E4BD3F8F03003F400631C
:10152800002BEDD137E0FFF753F8B8620AE0FFF778
:101538004FF80246BB6AD31A41F28832934201D966
:101548000323A0E2724BD3F8F03003F00203002B20
:10155800EDD16F4BD3F8F03003F08003002B1AD095
:101568006B4BD3F8F0306A4A23F08003C2F8F030AE
:101578000AE0FFF72DF80246BB6AD31A41F2883217
:10158800934201D903237EE2614BD3F8F03003F490
:101598000063002BEDD197F83530012B07D15C4B58
:1015A800D3F894305A4A23F00403C2F894307B6885
:1015B8001B6803F02003002B36D07B68DB6A002B06
:1015C80019D0534B1B68524A43F480531360FEF7FB
:1015D800FFFFB86208E0FEF7FBFF0246BB6AD31ABA
:1015E800022B01D903234EE2494B1B6803F4005335
:1015F800002BF0D018E0464B1B68454A23F4805373
:101608001360FEF7E5FFB86208E0FEF7E1FF024667
:10161800BB6AD31A022B01D9032334E23C4B1B6863
:1016280003F40053002BF0D17B681B6803F08003A0
:10163800002B36D07B681B6B002B19D0344B1B68F2
:10164800334A43F480431360FEF7C2FFB86208E0F0
:10165800FEF7BEFF0246BB6AD31A022B01D9032349
:1016680011E22B4B1B6803F40043002BF0D018E069
:10167800274B1B68264A23F480431360FEF7A8FF14
:10168800B86208E0FEF7A4FF0246BB6AD31A022B31
:1016980001D90323F7E11E4B1B6803F40043002B19
:1016A800F0D17B681B6803F04003002B7FD07B6878
:1016B8005B6B002B62D0164B9B68154A43F4000302
:1016C8009360134B9B6823F070627B689B6A104998
:1016D80013438B607B685B6AB3F1404F09D30C4BB3
:1016E800DB6823F01F027B681B6A09491343CB6040
:1016F8002AE07B685B6A002B0CDA054BDB6823F475
:1017080078727B681B6A5B0101491343CB601BE05D
:10171800000C02467B685B6AB3F1804F0AD3A14B89
:10172800DB6823F4F8427B681B6A9B029D491343DC
:10173800CB6009E09B4BDB6823F478227B681B6A4B
:10174800DB0398491343CB60964B1B68954A43F0DB
:1017580010031360FEF73CFFB86208E0FEF738FF9D
:101768000246BB6AD31A022B01D903238BE18D4BA6
:101778001B6803F02003002BF0D018E0894B1B688E
:10178800884A23F010031360FEF722FFB86208E0CE
:10179800FEF71EFF0246BB6AD31A022B01D90323A8
:1017A80071E1804B1B6803F02003002BF0D17B68AC
:1017B8009B6B002B00F06681002387F83430794B4F
:1017C800DB6903F00C030C2B00F0F2807B689B6B49
:1017D800022B40F0C580734B1B68724A23F080735C
:1017E8001360FEF7F5FEB86208E0FEF7F1FE024668
:1017F800BB6AD31A022B01D9032344E1694B1B6846
:1018080003F00073002BF0D1664BD3F8943003F04B
:101818000403002B11D1634BD3F89430614A43F091
:101828000403C2F894305F4BD3F8943003F00403F8
:10183800FB60FB68012387F834305B4BDB6803F4FB
:101848008023B3F5802F02D1012387F83730564B18
:10185800DB68554A23F48023D360524B9B6A23F4F8
:101868007F4323F003037A68D16B7A68126C013ADC
:10187800120211437A68526C0A434A4913438B6235
:10188800484B5A6B494B13407A68926C013AC2F341
:1018980008017A68D26C013A520292B211437A680E
:1018A800126D013A120402F4FE0211437A68526D75
:1018B800013A120602F0FE420A433A4913434B63C7
:1018C800384B9B6A374A23F0100393627B68DB6DC1
:1018D800344ADB009363334B9B6A324A43F010036C
:1018E8009362304B9B6A23F00C027B689B6D2D49F9
:1018F80013438B6297F83730012B05D12A4BDB68ED
:10190800294A43F48023D36097F83430012B07D158
:10191800244BD3F89430234A23F00403C2F89430BC
:10192800204B9B6A1F4A43F4802393621D4B1B681C
:101938001C4A43F080731360FEF74AFEB86208E061
:10194800FEF746FE0246BB6AD31A022B01D90323CF
:1019580099E0144B1B6803F00073002BF0D091E062
:10196800104B1B680F4A23F080731360FEF730FE9C
:10197800B86208E0FEF72CFE0246BB6AD31A022BB7
:1019880001D903237FE0074B1B6803F00073002B8A
:10199800F0D1044B9B6A034A23F4E02323F00303AA
:1019A80093626FE0000C0246000802460000808047
:1019B800374B9B6AFB61364B5B6BBB617B689B6BF0
:1019C800012B39D0FB6903F003027B68DB6B9A4279
:1019D80032D1FB691B0A03F00F027B681B6C013BC9
:1019E8009A4229D1FB6903F470427B685B6C9A4286
:1019F80022D1BB69C3F308027B689B6C013B9A4206
:101A08001AD1BB695B0A03F07F027B68DB6C013B80
:101A18009A4211D1BB691B0C03F07F027B681B6DD6
:101A2800013B9A4208D1BB691B0E03F07F027B6819
:101A38005B6D013B9A4201D0012324E0144B9B6B60
:101A4800DB08C3F30C027B68DB6D9A421AD0104B9B
:101A58009B6A0F4A23F010039362FEF7B9FDB86240
:101A680000BFFEF7B5FD0246BB6A9342F9D07B681A
:101A7800DB6D074ADB009363054B9B6A044A43F01E
:101A880010039362002318463837BD4680BD00BF57
:101A9800000C024680B586B000AF786039607B687C
:101AA800002B01D10123D9E19B4B1B6803F00F03E5
:101AB8003A689A4210D9984B1B6823F00F0296494E
:101AC8003B6813430B60944B1B6803F00F033A68A1
:101AD8009A4201D00123C1E17B681B6803F010031F
:101AE800002B10D07B685A698C4B5B6A03F070033B
:101AF8009A4208D9894B5B6A23F070027B685B695C
:101B0800864913434B627B681B6803F00803002B6C
:101B180012D07B681A69814B1B6A1B0903F070039A
:101B28009A4209D97D4B1B6A23F4E0627B681B69E2
:101B38001B017A4913430B627B681B6803F004039B
:101B4800002B10D07B68DA68744B1B6A03F07003B3
:101B58009A4208D9714B1B6A23F070027B68DB68D4
:101B68006E4913430B627B681B6803F00203002B6A
:101B780010D07B689A68694B1B6A03F00F039A427E
:101B880008D9664B1B6A23F00F027B689B68634980
:101B980013430B627B681B6803F00103002B00F002
:101BA800D2800023FB757B685B68032B43D15B4BBA
:101BB800D3F8943003F00403002B10D1574BD3F81B
:101BC8009430564A43F00403C2F89430534BD3F888
:101BD800943003F00403BB60BB680123FB75FEF778
:101BE800F7FC38614E4BDB6803F48023002B0FD0E1
:101BF80008E0FEF7EDFC02463B69D31A022B01D937
:101C080003232BE1464BDB6803F48043002BF0D021
:101C1800FB7D012B07D1414BD3F894303F4A23F089
:101C28000403C2F894303D4B1B6803F00073002B8B
:101C380021D1012312E17B685B68022B07D1374B66
:101C48001B6803F40033002B15D1012306E17B68E0
:101C58005B68002B07D1314B1B6803F00403002B92
:101C680009D10123FAE02D4B1B6803F48063002B94
:101C780001D10123F2E0294BDB6923F003027B68E1
:101C88005B6826491343CB61FEF7A2FC38617B6889
:101C98005B68032B12D10AE0FEF79AFC02463B6907
:101CA800D31A41F28832934201D90323D6E01B4B61
:101CB800DB6903F00C030C2BEED144E07B685B6816
:101CC800022B12D10AE0FEF783FC02463B69D31AC5
:101CD80041F28832934201D90323BFE00F4BDB69FD
:101CE80003F00C03082BEED12DE07B685B68002B1A
:101CF80023D10AE0FEF76CFC02463B69D31A41F295
:101D08008832934201D90323A8E0044BDB6903F02E
:101D18000C03002BEED116E000200240000C024616
:101D280000080246FEF754FC02463B69D31A41F20A
:101D38008832934201D9032390E04A4BDB6903F0D0
:101D48000C03042BEED17B681B6803F00203002B05
:101D580010D07B689A68434B1B6A03F00F039A42C2
:101D680008D2404B1B6A23F00F027B689B683D49F1
:101D780013430B623C4B1B6803F00F033A689A420B
:101D880010D2394B1B6823F00F0237493B681343C5
:101D98000B60354B1B6803F00F033A689A4201D079
:101DA80001235BE07B681B6803F00403002B10D061
:101DB8007B68DA682B4B1B6A03F070039A4208D2DF
:101DC800284B1B6A23F070027B68DB6825491343A4
:101DD8000B627B681B6803F00803002B12D07B683A
:101DE8001A69204B1B6A1B0903F070039A4209D237
:101DF8001C4B1B6A23F4E0627B681B691B011949B1
:101E080013430B627B681B6803F01003002B10D090
:101E18007B685A69134B5B6A03F070039A4208D2D5
:101E2800104B5B6A23F070027B685B690D491343B2
:101E38004B6200F021F802460A4B1B6A03F00F03BD
:101E48000A49CB5C22FA03F3094A1360094B1B6861
:101E58001846FEF773FB0346FB73FB7B18461837DF
:101E6800BD4680BD000C02460020024040221008FA
:101E7800040004200800042080B48BB000AF0023C5
:101E88007B6200233B62784BDB6903F00C03BB6188
:101E9800754B9B6A03F003037B61BB69002B05D07C
:101EA800BB690C2B21D17B69012B1ED16E4B9B6822
:101EB80003F40003002B07D16B4BD3F8F4301B0B52
:101EC80003F00F037B6205E0674B9B681B0F03F071
:101ED8000F037B62654A7B6A52F823307B62BB69D9
:101EE800002B10D17B6A3B620DE05F4BDB6903F08E
:101EF8000C03042B02D15E4B3B6204E0BB69082B48
:101F080001D15B4B3B62BB690C2B40F0A580564B63
:101F18009B6A03F003033B61534B9B6A1B0A03F064
:101F28000F030133FB60504B9B6A1B0903F001034D
:101F3800BB604D4B9B6BDB08C3F30C03BA6802FB19
:101F480003F307EE903AF8EE677AC7ED017A3B693A
:101F5800022B03D03B69032B22D043E0FB6807EE3A
:101F6800903AF8EE677ADFED436A86EEA77A3E4B41
:101F78005B6BC3F3080307EE903AF8EE676A97EDD8
:101F8800016ADFED3D5AC6EE257A76EEA77AF7EEBE
:101F9800006A77EEA67A67EE277AC7ED077A46E0F9
:101FA800FB6807EE903AF8EE677ADFED326A86EE64
:101FB800A77A2D4B5B6BC3F3080307EE903AF8EE54
:101FC800676A97ED016ADFED2C5AC6EE257A76EE40
:101FD800A77AF7EE006A77EEA67A67EE277AC7ED5A
:101FE800077A24E07B6A07EE903AF8EE676AFB68A6
:101FF80007EE903AF8EE677A86EEA77A1A4B5B6B93
:10200800C3F3080307EE903AF8EE676A97ED016AA2
:10201800DFED195AC6EE257A76EEA77AF7EE006A52
:1020280077EEA67A67EE277AC7ED077A00BF0E4BE0
:102038005B6B1B0E03F07F0301333B603B6807EECD
:10204800903AB8EE677AD7ED076AC6EE877AFCEE63
:10205800E77A17EE903A3B623B6A18462C37BD4642
:102068005DF8047B704700BF000C02465022100840
:102078000024F4000024744B0000004680B500AF33
:10208800FFF7FAFE0246074B1B6A03F00F030649E7
:10209800CB5C22FA03F3054A1360044B1B6818460D
:1020A80080BD00BF000C0246402210080400042036
:1020B80080B586B000AF78603E4BD3F8943003F01B
:1020C8000403002B03D0FEF7FBFD786119E0394BC0
:1020D800D3F89430374A43F00403C2F89430354BB0
:1020E800D3F8943003F00403FB60FB68FEF7E8FDC7
:1020F8007861304BD3F894302E4A23F00403C2F8A9
:1021080094307B69B3F5403F03D07B69B3F5003F5A
:1021180009D17B68B3F1805F02D201233B6133E0D0
:1021280000233B6130E07B68B3F1805F08D27B69B4
:10213800B3F5803F02D103233B6125E0012335E05D
:102148007B68B3F1005F0FD97B69002B09D17B68ED
:10215800B3F1405F02D900233B6115E001233B61E5
:1021680012E000233B610FE07B68B3F1805F09D187
:102178007B69B3F5803F02D101233B6104E0022370
:102188003B6101E001233B610B4B1B6823F00F020D
:1021980009493B6913430B60074B1B6803F00F03A6
:1021A8003A699A4201D0012300E000231846183703
:1021B800BD4680BD000C0246002002400244034692
:1021C800934200D1704703F8011BF9E770B50D4D34
:1021D80000260D4C641BA410A64209D10B4D002605
:1021E8000B4C00F017F8641BA410A64205D170BD73
:1021F80055F8043B01369847EEE755F8043B01369D
:102208009847F2E71023100810231008102310082D
:1022180014231008F8B500BFF8BC08BC9E467047E8
:10222800F8B500BFF8BC08BC9E4670470000000027
:082238005FF800F009E00F0C53
:102240000000000000000000010203040607080966
:10225000006CDC0200366E010024F400001BB700A5
:1022600000093D0080841E0060E3160040420F001C
:1022700000E02E000070170000A00F0000B80B0057
:10228000801A0600400D0300F0490200A0860100FC
:1022900000000242010000000000024203000000B2
:1022A000000002420600000000040242010000009B
:1022B000000402420A00000000080242020000007E
:1022C000000C02420D000000000C0242020000005F
:1022D000000802420A000000000402420000000060
:1022E000000802420C00000000040242030000004B
:1022F000000402420400000000100242000000003E
:102300000010024202000000001002420300000020
:042310005D02100852
:042314003902100872
:0D231800F401000000093D0010000000016C
:040000050810027964
:00000001FF
